{"abi":[{"type":"constructor","inputs":[{"name":"name_","type":"string","internalType":"string"},{"name":"symbol_","type":"string","internalType":"string"},{"name":"metadataURI_","type":"string","internalType":"string"},{"name":"policy","type":"uint8","internalType":"enum MembershipNFT.JoinPolicy"},{"name":"owner_","type":"address","internalType":"address"}],"stateMutability":"nonpayable"},{"type":"function","name":"CLOCK_MODE","inputs":[],"outputs":[{"name":"","type":"string","internalType":"string"}],"stateMutability":"view"},{"type":"function","name":"approve","inputs":[{"name":"to","type":"address","internalType":"address"},{"name":"tokenId","type":"uint256","internalType":"uint256"}],"outputs":[],"stateMutability":"nonpayable"},{"type":"function","name":"balanceOf","inputs":[{"name":"owner","type":"address","internalType":"address"}],"outputs":[{"name":"","type":"uint256","internalType":"uint256"}],"stateMutability":"view"},{"type":"function","name":"burn","inputs":[{"name":"tokenId","type":"uint256","internalType":"uint256"}],"outputs":[],"stateMutability":"nonpayable"},{"type":"function","name":"clock","inputs":[],"outputs":[{"name":"","type":"uint48","internalType":"uint48"}],"stateMutability":"view"},{"type":"function","name":"delegate","inputs":[{"name":"delegatee","type":"address","internalType":"address"}],"outputs":[],"stateMutability":"nonpayable"},{"type":"function","name":"delegateBySig","inputs":[{"name":"delegatee","type":"address","internalType":"address"},{"name":"nonce","type":"uint256","internalType":"uint256"},{"name":"expiry","type":"uint256","internalType":"uint256"},{"name":"v","type":"uint8","internalType":"uint8"},{"name":"r","type":"bytes32","internalType":"bytes32"},{"name":"s","type":"bytes32","internalType":"bytes32"}],"outputs":[],"stateMutability":"nonpayable"},{"type":"function","name":"delegates","inputs":[{"name":"account","type":"address","internalType":"address"}],"outputs":[{"name":"","type":"address","internalType":"address"}],"stateMutability":"view"},{"type":"function","name":"eip712Domain","inputs":[],"outputs":[{"name":"fields","type":"bytes1","internalType":"bytes1"},{"name":"name","type":"string","internalType":"string"},{"name":"version","type":"string","internalType":"string"},{"name":"chainId","type":"uint256","internalType":"uint256"},{"name":"verifyingContract","type":"address","internalType":"address"},{"name":"salt","type":"bytes32","internalType":"bytes32"},{"name":"extensions","type":"uint256[]","internalType":"uint256[]"}],"stateMutability":"view"},{"type":"function","name":"getApproved","inputs":[{"name":"tokenId","type":"uint256","internalType":"uint256"}],"outputs":[{"name":"","type":"address","internalType":"address"}],"stateMutability":"view"},{"type":"function","name":"getPastTotalSupply","inputs":[{"name":"timepoint","type":"uint256","internalType":"uint256"}],"outputs":[{"name":"","type":"uint256","internalType":"uint256"}],"stateMutability":"view"},{"type":"function","name":"getPastVotes","inputs":[{"name":"account","type":"address","internalType":"address"},{"name":"timepoint","type":"uint256","internalType":"uint256"}],"outputs":[{"name":"","type":"uint256","internalType":"uint256"}],"stateMutability":"view"},{"type":"function","name":"getVotes","inputs":[{"name":"account","type":"address","internalType":"address"}],"outputs":[{"name":"","type":"uint256","internalType":"uint256"}],"stateMutability":"view"},{"type":"function","name":"isApprovedForAll","inputs":[{"name":"owner","type":"address","internalType":"address"},{"name":"operator","type":"address","internalType":"address"}],"outputs":[{"name":"","type":"bool","internalType":"bool"}],"stateMutability":"view"},{"type":"function","name":"joinOpen","inputs":[],"outputs":[{"name":"tokenId","type":"uint256","internalType":"uint256"}],"stateMutability":"nonpayable"},{"type":"function","name":"joinPolicy","inputs":[],"outputs":[{"name":"","type":"uint8","internalType":"enum MembershipNFT.JoinPolicy"}],"stateMutability":"view"},{"type":"function","name":"memberSince","inputs":[{"name":"","type":"address","internalType":"address"}],"outputs":[{"name":"","type":"uint64","internalType":"uint64"}],"stateMutability":"view"},{"type":"function","name":"metadataURI","inputs":[],"outputs":[{"name":"","type":"string","internalType":"string"}],"stateMutability":"view"},{"type":"function","name":"mintTo","inputs":[{"name":"to","type":"address","internalType":"address"}],"outputs":[{"name":"tokenId","type":"uint256","internalType":"uint256"}],"stateMutability":"nonpayable"},{"type":"function","name":"name","inputs":[],"outputs":[{"name":"","type":"string","internalType":"string"}],"stateMutability":"view"},{"type":"function","name":"nonces","inputs":[{"name":"owner","type":"address","internalType":"address"}],"outputs":[{"name":"","type":"uint256","internalType":"uint256"}],"stateMutability":"view"},{"type":"function","name":"owner","inputs":[],"outputs":[{"name":"","type":"address","internalType":"address"}],"stateMutability":"view"},{"type":"function","name":"ownerOf","inputs":[{"name":"tokenId","type":"uint256","internalType":"uint256"}],"outputs":[{"name":"","type":"address","internalType":"address"}],"stateMutability":"view"},{"type":"function","name":"renounceOwnership","inputs":[],"outputs":[],"stateMutability":"nonpayable"},{"type":"function","name":"safeTransferFrom","inputs":[{"name":"from","type":"address","internalType":"address"},{"name":"to","type":"address","internalType":"address"},{"name":"tokenId","type":"uint256","internalType":"uint256"}],"outputs":[],"stateMutability":"nonpayable"},{"type":"function","name":"safeTransferFrom","inputs":[{"name":"from","type":"address","internalType":"address"},{"name":"to","type":"address","internalType":"address"},{"name":"tokenId","type":"uint256","internalType":"uint256"},{"name":"data","type":"bytes","internalType":"bytes"}],"outputs":[],"stateMutability":"nonpayable"},{"type":"function","name":"setApprovalForAll","inputs":[{"name":"operator","type":"address","internalType":"address"},{"name":"approved","type":"bool","internalType":"bool"}],"outputs":[],"stateMutability":"nonpayable"},{"type":"function","name":"setJoinPolicy","inputs":[{"name":"policy","type":"uint8","internalType":"enum MembershipNFT.JoinPolicy"}],"outputs":[],"stateMutability":"nonpayable"},{"type":"function","name":"setMetadataURI","inputs":[{"name":"uri","type":"string","internalType":"string"}],"outputs":[],"stateMutability":"nonpayable"},{"type":"function","name":"supportsInterface","inputs":[{"name":"interfaceId","type":"bytes4","internalType":"bytes4"}],"outputs":[{"name":"","type":"bool","internalType":"bool"}],"stateMutability":"view"},{"type":"function","name":"symbol","inputs":[],"outputs":[{"name":"","type":"string","internalType":"string"}],"stateMutability":"view"},{"type":"function","name":"tokenURI","inputs":[{"name":"tokenId","type":"uint256","internalType":"uint256"}],"outputs":[{"name":"","type":"string","internalType":"string"}],"stateMutability":"view"},{"type":"function","name":"transferFrom","inputs":[{"name":"from","type":"address","internalType":"address"},{"name":"to","type":"address","internalType":"address"},{"name":"tokenId","type":"uint256","internalType":"uint256"}],"outputs":[],"stateMutability":"nonpayable"},{"type":"function","name":"transferOwnership","inputs":[{"name":"newOwner","type":"address","internalType":"address"}],"outputs":[],"stateMutability":"nonpayable"},{"type":"event","name":"Approval","inputs":[{"name":"owner","type":"address","indexed":true,"internalType":"address"},{"name":"approved","type":"address","indexed":true,"internalType":"address"},{"name":"tokenId","type":"uint256","indexed":true,"internalType":"uint256"}],"anonymous":false},{"type":"event","name":"ApprovalForAll","inputs":[{"name":"owner","type":"address","indexed":true,"internalType":"address"},{"name":"operator","type":"address","indexed":true,"internalType":"address"},{"name":"approved","type":"bool","indexed":false,"internalType":"bool"}],"anonymous":false},{"type":"event","name":"DelegateChanged","inputs":[{"name":"delegator","type":"address","indexed":true,"internalType":"address"},{"name":"fromDelegate","type":"address","indexed":true,"internalType":"address"},{"name":"toDelegate","type":"address","indexed":true,"internalType":"address"}],"anonymous":false},{"type":"event","name":"DelegateVotesChanged","inputs":[{"name":"delegate","type":"address","indexed":true,"internalType":"address"},{"name":"previousVotes","type":"uint256","indexed":false,"internalType":"uint256"},{"name":"newVotes","type":"uint256","indexed":false,"internalType":"uint256"}],"anonymous":false},{"type":"event","name":"EIP712DomainChanged","inputs":[],"anonymous":false},{"type":"event","name":"JoinPolicySet","inputs":[{"name":"policy","type":"uint8","indexed":false,"internalType":"enum MembershipNFT.JoinPolicy"}],"anonymous":false},{"type":"event","name":"MemberJoined","inputs":[{"name":"member","type":"address","indexed":true,"internalType":"address"},{"name":"tokenId","type":"uint256","indexed":false,"internalType":"uint256"}],"anonymous":false},{"type":"event","name":"MemberRemoved","inputs":[{"name":"member","type":"address","indexed":true,"internalType":"address"},{"name":"tokenId","type":"uint256","indexed":false,"internalType":"uint256"}],"anonymous":false},{"type":"event","name":"MetadataURISet","inputs":[{"name":"uri","type":"string","indexed":false,"internalType":"string"}],"anonymous":false},{"type":"event","name":"OwnershipTransferred","inputs":[{"name":"previousOwner","type":"address","indexed":true,"internalType":"address"},{"name":"newOwner","type":"address","indexed":true,"internalType":"address"}],"anonymous":false},{"type":"event","name":"Transfer","inputs":[{"name":"from","type":"address","indexed":true,"internalType":"address"},{"name":"to","type":"address","indexed":true,"internalType":"address"},{"name":"tokenId","type":"uint256","indexed":true,"internalType":"uint256"}],"anonymous":false},{"type":"error","name":"AlreadyMember","inputs":[{"name":"who","type":"address","internalType":"address"}]},{"type":"error","name":"CheckpointUnorderedInsertion","inputs":[]},{"type":"error","name":"ECDSAInvalidSignature","inputs":[]},{"type":"error","name":"ECDSAInvalidSignatureLength","inputs":[{"name":"length","type":"uint256","internalType":"uint256"}]},{"type":"error","name":"ECDSAInvalidSignatureS","inputs":[{"name":"s","type":"bytes32","internalType":"bytes32"}]},{"type":"error","name":"ERC5805FutureLookup","inputs":[{"name":"timepoint","type":"uint256","internalType":"uint256"},{"name":"clock","type":"uint48","internalType":"uint48"}]},{"type":"error","name":"ERC6372InconsistentClock","inputs":[]},{"type":"error","name":"ERC721IncorrectOwner","inputs":[{"name":"sender","type":"address","internalType":"address"},{"name":"tokenId","type":"uint256","internalType":"uint256"},{"name":"owner","type":"address","internalType":"address"}]},{"type":"error","name":"ERC721InsufficientApproval","inputs":[{"name":"operator","type":"address","internalType":"address"},{"name":"tokenId","type":"uint256","internalType":"uint256"}]},{"type":"error","name":"ERC721InvalidApprover","inputs":[{"name":"approver","type":"address","internalType":"address"}]},{"type":"error","name":"ERC721InvalidOperator","inputs":[{"name":"operator","type":"address","internalType":"address"}]},{"type":"error","name":"ERC721InvalidOwner","inputs":[{"name":"owner","type":"address","internalType":"address"}]},{"type":"error","name":"ERC721InvalidReceiver","inputs":[{"name":"receiver","type":"address","internalType":"address"}]},{"type":"error","name":"ERC721InvalidSender","inputs":[{"name":"sender","type":"address","internalType":"address"}]},{"type":"error","name":"ERC721NonexistentToken","inputs":[{"name":"tokenId","type":"uint256","internalType":"uint256"}]},{"type":"error","name":"InvalidAccountNonce","inputs":[{"name":"account","type":"address","internalType":"address"},{"name":"currentNonce","type":"uint256","internalType":"uint256"}]},{"type":"error","name":"InvalidShortString","inputs":[]},{"type":"error","name":"NotOpen","inputs":[]},{"type":"error","name":"OwnableInvalidOwner","inputs":[{"name":"owner","type":"address","internalType":"address"}]},{"type":"error","name":"OwnableUnauthorizedAccount","inputs":[{"name":"account","type":"address","internalType":"address"}]},{"type":"error","name":"SafeCastOverflowedUintDowncast","inputs":[{"name":"bits","type":"uint8","internalType":"uint8"},{"name":"value","type":"uint256","internalType":"uint256"}]},{"type":"error","name":"StringTooLong","inputs":[{"name":"str","type":"string","internalType":"string"}]},{"type":"error","name":"TransfersDisabled","inputs":[]},{"type":"error","name":"VotesExpiredSignature","inputs":[{"name":"expiry","type":"uint256","internalType":"uint256"}]}],"bytecode":{"object":"0x6101608060405234610659576131c7803803809161001d828561065d565b8339810160a0828203126106595781516001600160401b0381116106595781610047918401610680565b60208301516001600160401b0381116106595782610066918501610680565b604084015190926001600160401b03821161065957610086918501610680565b90606084015193600385101561065957608001516001600160a01b0381169190829003610659576040938451916100bd868461065d565b60018352603160f81b6020840190815281519092906001600160401b038111610471575f54600181811c9116801561064f575b602082101461045357601f81116105ed575b50806020601f821160011461058c575f91610581575b508160011b915f199060031b1c1916175f555b8051906001600160401b0382116104715760015490600182811c92168015610577575b60208310146104535781601f849311610509575b50602090601f83116001146104a3575f92610498575b50508160011b915f199060031b1c1916176001555b610196816106ff565b610120526101a383610867565b6101405260208151910120918260e05251902080610100524660a05284519060208201927f8b73c3c69bb8fe3d512ecc4cf759cc79239f7b179b0ffacaa9a75d522b39400f84528683015260608201524660808201523060a082015260a0815261020e60c08261065d565b5190206080523060c052801561048557600c80546001600160a01b0319811683179091556001600160a01b03167f8be0079c531659141344cd1fd0a4f28419497f9722a3daafe3b4186f6b6457e05f80a38051926001600160401b03841161047157600d54600181811c91168015610467575b602082101461045357601f81116103f0575b50602093601f811160011461036b57602061030e9392825f5160206131a75f395f51905f52935f5160206131875f395f51905f5297985f91610360575b508160011b915f199060031b1c191617600d555b600c805460ff60a01b191660a083901b60ff60a01b161790558651908152a18351918291826106d5565b0390a1516127e790816109a08239608051816121dc015260a05181612299015260c051816121a6015260e0518161222b0152610100518161225101526101205181610d1501526101405181610d3e0152f35b90508501515f6102d0565b601f198116600d5f52855f20905f5b8181106103d85750926001836020935f5160206131875f395f51905f5298995f5160206131a75f395f51905f529661030e9998106103c0575b5050811b01600d556102e4565b8701515f1960f88460031b161c191690555f806103b3565b8588015183556020978801976001909301920161037a565b600d5f527fd7b6990105719101dabeb77144f2a3385c8033acd3af97e9423a695e81ad1eb5601f860160051c81019160208710610449575b601f0160051c01905b81811061043e5750610293565b5f8155600101610431565b9091508190610428565b634e487b7160e01b5f52602260045260245ffd5b90607f1690610281565b634e487b7160e01b5f52604160045260245ffd5b631e4fbdf760e01b5f525f60045260245ffd5b015190505f80610178565b60015f9081528281209350601f198516905b8181106104f157509084600195949392106104d9575b505050811b0160015561018d565b01515f1960f88460031b161c191690555f80806104cb565b929360206001819287860151815501950193016104b5565b60015f529091507fb10e2d527612073b26eecdfd717e6a320cf44b4afac2b0732d9fcbe2b7fa0cf6601f840160051c8101916020851061056d575b90601f859493920160051c01905b81811061055f5750610162565b5f8155849350600101610552565b9091508190610544565b91607f169161014e565b90508301515f610118565b5f8080528181209250601f198416905b8181106105d5575090836001949392106105bd575b5050811b015f5561012b565b8501515f1960f88460031b161c191690555f806105b1565b9192602060018192868a01518155019401920161059c565b5f80527f290decd9548b62a8d60345a988386fc84ba6bc95484008f6362f93160ef3e563601f830160051c81019160208410610645575b601f0160051c01905b81811061063a5750610102565b5f815560010161062d565b9091508190610624565b90607f16906100f0565b5f80fd5b601f909101601f19168101906001600160401b0382119082101761047157604052565b81601f82011215610659578051906001600160401b03821161047157604051926106b4601f8401601f19166020018561065d565b8284526020838301011161065957815f9260208093018386015e8301015290565b602060409281835280519182918282860152018484015e5f828201840152601f01601f1916010190565b908151602081105f1461075a575090601f81511161073957602081519101516020821061072a571790565b5f198260200360031b1b161790565b60405163305a27a960e01b815290819061075690600483016106d5565b0390fd5b6001600160401b03811161047157600654600181811c9116801561085d575b602082101461045357601f811161082a575b50602092601f82116001146107c957928192935f926107be575b50508160011b915f199060031b1c19161760065560ff90565b015190505f806107a5565b601f1982169360065f52805f20915f5b86811061081257508360019596106107fa575b505050811b0160065560ff90565b01515f1960f88460031b161c191690555f80806107ec565b919260206001819286850151815501940192016107d9565b60065f52601f60205f20910160051c810190601f830160051c015b818110610852575061078b565b5f8155600101610845565b90607f1690610779565b908151602081105f14610892575090601f81511161073957602081519101516020821061072a571790565b6001600160401b03811161047157600754600181811c91168015610995575b602082101461045357601f8111610962575b50602092601f821160011461090157928192935f926108f6575b50508160011b915f199060031b1c19161760075560ff90565b015190505f806108dd565b601f1982169360075f52805f20915f5b86811061094a5750836001959610610932575b505050811b0160075560ff90565b01515f1960f88460031b161c191690555f8080610924565b91926020600181928685015181550194019201610911565b60075f52601f60205f20910160051c810190601f830160051c015b81811061098a57506108c3565b5f815560010161097d565b90607f16906108b156fe60806040526004361015610011575f80fd5b5f3560e01c806301ffc9a71461023457806303ee438c1461022f57806306fdde031461022a578063081812fc14610225578063095ea7b3146102205780630d4691701461021b57806323b872dd146102165780632da20628146102115780633a46b1a81461020c57806342842e0e1461020757806342966c68146102025780634bf5d7e9146101fd578063587cde1e146101f85780635c19a95c146101f35780636352211e146101ee57806370a08231146101e9578063715018a6146101e4578063750521f5146101df578063755edd17146101da5780637ecebe00146101d557806384b0196e146101d05780638da5cb5b146101cb5780638e539e8c146101c657806391ddadf4146101c157806395d89b41146101bc5780639ab24eb0146101b7578063a22cb465146101b2578063b88d4fde146101ad578063c3cda520146101a8578063c749ea2c146101a3578063c87b56dd1461019e578063cdd3dd4e14610199578063e985e9c5146101945763f2fde38b1461018f575f80fd5b6113a4565b611348565b611320565b6112a4565b61125f565b61117b565b6110f3565b610ff8565b610fb1565b610f0c565b610ee1565b610e22565b610dfa565b610cfd565b610cc5565b610c9a565b610b10565b610ab5565b610a8a565b610a5a565b610a38565b6109f8565b610968565b610874565b61083f565b61075a565b6106e6565b6106cf565b610653565b61054c565b6104e4565b610442565b610368565b61024f565b6001600160e01b031981160361024b57565b5f80fd5b3461024b57602036600319011261024b57602060043561026e81610239565b63ffffffff60e01b166380ac58cd60e01b81149081156102ac575b811561029b575b506040519015158152f35b6301ffc9a760e01b1490505f610290565b635b5e139f60e01b81149150610289565b90600182811c921680156102eb575b60208310146102d757565b634e487b7160e01b5f52602260045260245ffd5b91607f16916102cc565b634e487b7160e01b5f52604160045260245ffd5b90601f8019910116810190811067ffffffffffffffff82111761032b57604052565b6102f5565b805180835260209291819084018484015e5f828201840152601f01601f1916010190565b906020610365928181520190610330565b90565b3461024b575f36600319011261024b576040515f600d54610388816102bd565b808452906001811690811561041e57506001146103c0575b6103bc836103b081850382610309565b60405191829182610354565b0390f35b600d5f9081527fd7b6990105719101dabeb77144f2a3385c8033acd3af97e9423a695e81ad1eb5939250905b808210610404575090915081016020016103b06103a0565b9192600181602092548385880101520191019092916103ec565b60ff191660208086019190915291151560051b840190910191506103b090506103a0565b3461024b575f36600319011261024b576040515f5f54610461816102bd565b808452906001811690811561041e5750600114610488576103bc836103b081850382610309565b5f8080527f290decd9548b62a8d60345a988386fc84ba6bc95484008f6362f93160ef3e563939250905b8082106104ca575090915081016020016103b06103a0565b9192600181602092548385880101520191019092916104b2565b3461024b57602036600319011261024b576004356105018161167e565b505f526004602052602060018060a01b0360405f205416604051908152f35b600435906001600160a01b038216820361024b57565b602435906001600160a01b038216820361024b57565b3461024b57604036600319011261024b57610565610520565b602435906105728261167e565b33151580610640575b80610602575b6105ef576105ed926105ce9181906001600160a01b0385811691167f8c5be1e5ebec7d5bd14f71427d1e84f3dd0314c0f7b2291e5b200ac8c7c3b9255f80a45f52600460205260405f2090565b80546001600160a01b0319166001600160a01b03909216919091179055565b005b63a9fbf51f60e01b5f523360045260245ffd5b5060ff610638336106238460018060a01b03165f52600560205260405f2090565b9060018060a01b03165f5260205260405f2090565b541615610581565b506001600160a01b03811633141561057b565b3461024b57602036600319011261024b576001600160a01b03610674610520565b165f52600f602052602067ffffffffffffffff60405f205416604051908152f35b606090600319011261024b576004356001600160a01b038116810361024b57906024356001600160a01b038116810361024b579060443590565b3461024b576105ed6106e036610695565b9161142a565b3461024b57602036600319011261024b57600435600381101561024b576107557fed0c126de9f7a3a6c1b314a7d442d0826e437d89ec86111e429cb740f519fee5916107306117ab565b600c805460ff60a01b191660a083901b60ff60a01b161790556040519182918261130d565b0390a1005b3461024b57604036600319011261024b57610773610520565b6001600160a01b03165f908152600a602052604090206107946024356117d2565b8154905f8291600584116107e7575b6107ae935084611ebf565b90816107cc57505060205f5b6040516001600160d01b039091168152f35b6107d760209261181f565b905f52815f20015460301c6107ba565b91926107f281611d61565b810390811161083a576107ae93855f5265ffffffffffff8260205f2001541665ffffffffffff8516105f146108285750916107a3565b9291506108349061182d565b906107a3565b61180b565b3461024b576105ed61085036610695565b9060405192610860602085610309565b5f845261086e83838361142a565b33611c00565b3461024b57602036600319011261024b576004355f818152600260205260409020546001600160a01b031690811561093857600c547f3ac963493df564de734d98633f1145d21512e282ba4c02d3c1011119bf7f28629161092a916001600160a01b03163314801561092f575b6108ea90611587565b6108f38161183b565b6001600160a01b0384165f908152600f60205260409020805467ffffffffffffffff191690555b6040519081529081906020820190565b0390a2005b503384146108e1565b60405162461bcd60e51b81526020600482015260086024820152673737903a37b5b2b760c11b6044820152606490fd5b3461024b575f36600319011261024b5761098143611d32565b65ffffffffffff8061099243611d32565b169116036109e9576103bc6040516109ab604082610309565b601d81527f6d6f64653d626c6f636b6e756d6265722666726f6d3d64656661756c740000006020820152604051918291602083526020830190610330565b6301bfc1c560e61b5f5260045ffd5b3461024b57602036600319011261024b576001600160a01b03610a19610520565b165f526009602052602060018060a01b0360405f205416604051908152f35b3461024b57602036600319011261024b576105ed610a54610520565b33611901565b3461024b57602036600319011261024b576020610a7860043561167e565b6040516001600160a01b039091168152f35b3461024b57602036600319011261024b576020610aad610aa8610520565b6115c4565b604051908152f35b3461024b575f36600319011261024b57610acd6117ab565b600c80546001600160a01b031981169091555f906001600160a01b03167f8be0079c531659141344cd1fd0a4f28419497f9722a3daafe3b4186f6b6457e08280a3005b3461024b57602036600319011261024b5760043567ffffffffffffffff811161024b573660238201121561024b5780600401359067ffffffffffffffff821161024b57366024838301011161024b5760240190610b6b6117ab565b67ffffffffffffffff811161032b57610b8e81610b89600d546102bd565b6115f5565b5f91601f8211600114610bfa57610bdc82807f307edb14d46e43e3a7232886d692798e4129f8bb711ca4ce6cf43e2c55fc8e96955f91610bef575b508160011b915f199060031b1c19161790565b600d555b61075560405192839283611645565b90508301355f610bc9565b600d5f52601f1982167fd7b6990105719101dabeb77144f2a3385c8033acd3af97e9423a695e81ad1eb5905f5b818110610c82575093837f307edb14d46e43e3a7232886d692798e4129f8bb711ca4ce6cf43e2c55fc8e969510610c69575b5050600182811b01600d55610be0565b8201355f19600385901b60f8161c191690555f80610c59565b83860135835560209586019560019093019201610c27565b3461024b57602036600319011261024b576020610aad610cb8610520565b610cc06117ab565b611974565b3461024b57602036600319011261024b576001600160a01b03610ce6610520565b165f526008602052602060405f2054604051908152f35b3461024b575f36600319011261024b57610da1610d397f0000000000000000000000000000000000000000000000000000000000000000612039565b610d627f00000000000000000000000000000000000000000000000000000000000000006120fe565b6020604051610d718282610309565b5f815281610daf81830194601f198301368737604051978897600f60f81b895260e0858a015260e0890190610330565b908782036040890152610330565b914660608701523060808701525f60a087015285830360c087015251918281520192915f5b828110610de357505050500390f35b835185528695509381019392810192600101610dd4565b3461024b575f36600319011261024b57600c546040516001600160a01b039091168152602090f35b3461024b57602036600319011261024b57610e3e6004356117d2565b600b54905f829160058411610e8d575b610e5a9350600b611ebf565b80610e6b57506040515f8152602090f35b610e88610e7960209261181f565b600b5f52825f20015460301c90565b6107ba565b9192610e9881611d61565b810390811161083a57610e5a93600b5f5265ffffffffffff8260205f2001541665ffffffffffff8516105f14610ecf575091610e4e565b929150610edb9061182d565b90610e4e565b3461024b575f36600319011261024b576020610efc43611d32565b65ffffffffffff60405191168152f35b3461024b575f36600319011261024b576040515f600154610f2c816102bd565b808452906001811690811561041e5750600114610f53576103bc836103b081850382610309565b60015f9081527fb10e2d527612073b26eecdfd717e6a320cf44b4afac2b0732d9fcbe2b7fa0cf6939250905b808210610f97575090915081016020016103b06103a0565b919260018160209254838588010152019101909291610f7f565b3461024b57602036600319011261024b576001600160a01b03610fd2610520565b165f52600a602052602060018060d01b03610fef60405f20611a70565b16604051908152f35b3461024b57604036600319011261024b57611011610520565b602435801515810361024b5733156110b3576001600160a01b0382169182156110a0578161105d61106e92335f52600560205260405f209060018060a01b03165f5260205260405f2090565b9060ff801983541691151516179055565b604051901515815233907f17307eab39ab6107e8899845ad3d59bd9653f200f220920489ca2b5937696c3190602090a3005b82630b61174360e31b5f5260045260245ffd5b63a9fbf51f60e01b5f525f60045260245ffd5b604051906110d5604083610309565b565b67ffffffffffffffff811161032b57601f01601f191660200190565b3461024b57608036600319011261024b5761110c610520565b611114610536565b906044356064359267ffffffffffffffff841161024b573660238501121561024b57836004013592611145846110d7565b936111536040519586610309565b808552366024828801011161024b576020815f9260246105ed9901838901378601015261166c565b3461024b5760c036600319011261024b57611194610520565b6044359060243560643560ff8116810361024b5760843560a4359185421161124c5791611240916112479360426105ed9860405160208101917fe48329057bfd03d55e49b547132e39cffd9c1820ad7b9d4c5307691425d15adf835260018060a01b038b16604083015289606083015260808201526080815261121860a082610309565b5190206112236121a3565b906040519161190160f01b83526002830152602282015220611c9a565b9182611cb2565b611901565b85632341d78760e11b5f5260045260245ffd5b3461024b575f36600319011261024b5760ff600c5460a01c16600381101561129f57611290576020610aad33611974565b631bb5f5b360e31b5f5260045ffd5b6112f9565b3461024b57602036600319011261024b576112c060043561167e565b505f6040516112d0602082610309565b526103bc6040516112e2602082610309565b5f8152604051918291602083526020830190610330565b634e487b7160e01b5f52602160045260245ffd5b91906020830192600382101561129f5752565b3461024b575f36600319011261024b576103bc60ff600c5460a01c166040519182918261130d565b3461024b57604036600319011261024b57602060ff611398611368610520565b611370610536565b6001600160a01b039182165f9081526005865260408082209290931681526020919091522090565b54166040519015158152f35b3461024b57602036600319011261024b576113bd610520565b6113c56117ab565b6001600160a01b0316801561141757600c80546001600160a01b0319811683179091556001600160a01b03167f8be0079c531659141344cd1fd0a4f28419497f9722a3daafe3b4186f6b6457e05f80a3005b631e4fbdf760e01b5f525f60045260245ffd5b6001600160a01b03821692918315611574575f838152600260205260409020546001600160a01b031615158061156c575b61155d575f838152600260205260409020546114f3906001600160a01b0316913361154d575b6001600160a01b03831695859087611521575b6001600160a01b0383165f908152600360205260409020600181540190556114c8836105ce845f52600260205260405f2090565b877fddf252ad1be2c89b69c2b068fc378daa952ba7f163c4a11628f55a4df523b3ef5f80a4826123d2565b506001600160a01b031680830361150957505050565b6364283d7b60e01b5f5260045260245260445260645ffd5b61152a82611d10565b6001600160a01b0385165f90815260036020526040902080545f19019055611494565b6115588533856125a1565b611481565b638574adcf60e01b5f5260045ffd5b50600161145b565b633250574960e11b5f525f60045260245ffd5b1561158e57565b60405162461bcd60e51b815260206004820152600e60248201526d1b9bdd08185d5d1a1bdc9a5e995960921b6044820152606490fd5b6001600160a01b031680156115e2575f52600360205260405f205490565b6322718ad960e21b5f525f60045260245ffd5b601f8111611601575050565b600d5f5260205f20906020601f840160051c8301931061163b575b601f0160051c01905b818110611630575050565b5f8155600101611625565b909150819061161c565b90918060409360208452816020850152848401375f828201840152601f01601f1916010190565b906110d593929161086e83838361142a565b5f818152600260205260409020546001600160a01b03169081156116a0575090565b637e27328960e01b5f5260045260245ffd5b5f828152600260205260409020546001600160a01b0316151580611799575b61155d575f828152600260205260409020546001600160a01b0316916103659190838061176d575b6001600160a01b038316908161174a575b611720846105ce855f52600260205260405f2090565b7fddf252ad1be2c89b69c2b068fc378daa952ba7f163c4a11628f55a4df523b3ef5f80a4826123d2565b6001600160a01b0384165f9081526003602052604090206001815401905561170a565b61177682611d10565b6001600160a01b0385165f90815260036020526040902080545f190190556116f9565b506001600160a01b03811615156116d1565b600c546001600160a01b031633036117bf57565b63118cdaa760e01b5f523360045260245ffd5b65ffffffffffff6117e243611d32565b16808210156117f5575061036590611d32565b90637669fc0f60e11b5f5260045260245260445ffd5b634e487b7160e01b5f52601160045260245ffd5b5f1981019190821161083a57565b906001820180921161083a57565b5f818152600260205260409020546001600160a01b03161515806118fa575b61155d575f818152600260205260408120546001600160a01b031680159183908284156118ce575b611898826105ce855f52600260205260405f2090565b7fddf252ad1be2c89b69c2b068fc378daa952ba7f163c4a11628f55a4df523b3ef8280a46118c65f826123d2565b506116a05750565b6118d783611d10565b6001600160a01b0384165f90815260036020526040902082198154019055611882565b505f61185a565b6001600160a01b038181165f81815260096020526040902080546001600160a01b03198116848716179091556110d59492169261196e916001600160a01b0384169085907f3134e8a2e6d97e929a7e54011ea5485d7d196dd5f0ba4d4ef95803e8e3fc257f5f80a46115c4565b91611f18565b9061197e826115c4565b611a4f57600e545f19811461083a5760010180600e558092604051906119a5602083610309565b5f82526001600160a01b038116928315611574576001600160a01b036119cb82846116b2565b16611a3c5761091a82611a047f7f3b9effe05cfb4f31f854004de03199fd03fe56bf38a48b2aa9a9f4402d6e239584611a379633611b0f565b6001600160a01b03165f908152600f60205260409020805467ffffffffffffffff191667ffffffffffffffff4216179055565b0390a2565b6339e3563760e11b5f525f60045260245ffd5b50630268f92960e01b5f9081526001600160a01b0391909116600452602490fd5b80549081611a7e5750505f90565b815f1981011161083a575f525f199060205f2001015460301c90565b9081602091031261024b575161036581610239565b6001600160a01b03918216815291166020820152604081019190915260806060820181905261036592910190610330565b3d15611b0a573d90611af1826110d7565b91611aff6040519384610309565b82523d5f602084013e565b606090565b9092833b611b1e575b50505050565b604051630a85bd0160e11b81529260209284928392611b42925f9060048601611aaf565b03815f6001600160a01b0387165af15f9181611bcf575b50611b935750611b67611ae0565b8051919082611b8c57633250574960e11b5f526001600160a01b03821660045260245ffd5b6020915001fd5b6001600160e01b03191663757a42ff60e11b01611bb457505f808080611b18565b633250574960e11b5f526001600160a01b031660045260245ffd5b611bf291925060203d602011611bf9575b611bea8183610309565b810190611a9a565b905f611b59565b503d611be0565b939193843b611c11575b5050505050565b611c326020936040519586948594630a85bd0160e11b865260048601611aaf565b03815f6001600160a01b0387165af15f9181611c79575b50611c575750611b67611ae0565b6001600160e01b03191663757a42ff60e11b01611bb457505f80808080611c0a565b611c9391925060203d602011611bf957611bea8183610309565b905f611c49565b916103659391611ca9936122bf565b90929192612356565b6001600160a01b03165f81815260086020526040902080546001810190915591829003611cdd575050565b6301d4b62360e61b5f5260045260245260445ffd5b8115611cfc570490565b634e487b7160e01b5f52601260045260245ffd5b611d22905f52600460205260405f2090565b80546001600160a01b0319169055565b65ffffffffffff8111611d4a5765ffffffffffff1690565b6306dfcc6560e41b5f52603060045260245260445ffd5b600181111561036557806001600160801b821015611e82575b611e28611e1e611e14611e0a611e00611df6611de5611e2f9760048a600160401b611e349c1015611e75575b640100000000811015611e68575b62010000811015611e5b575b610100811015611e4e575b6010811015611e41575b1015611e39575b60030260011c90565b611def818b611cf2565b0160011c90565b611def818a611cf2565b611def8189611cf2565b611def8188611cf2565b611def8187611cf2565b611def8186611cf2565b8093611cf2565b821190565b900390565b60011b611ddc565b60041c9160021b91611dd5565b60081c9160041b91611dcb565b60101c9160081b91611dc0565b60201c9160101b91611db4565b60401c9160201b91611da6565b5050611e34611e2f611e28611e1e611e14611e0a611e00611df6611de5611ea98a60801c90565b9850600160401b9750611d7a9650505050505050565b905b838310611ece5750505090565b90919280841860011c8185160190835f5265ffffffffffff8260205f2001541665ffffffffffff8416105f14611f085750925b9190611ec1565b9350611f139061182d565b611f01565b6001600160a01b03808316939291908116908185141580612030575b611f3f575050505050565b81611fc3575b505082611f54575b8080611c0a565b6001600160a01b03165f908152600a602052604090207fdec2bacdd2f05b59de34da9b523dff8be42e5e38e818c82fdb0bae774387a72491611fa091611f9a909161248e565b906124f7565b604080516001600160d01b039384168152919092166020820152a25f8080611f4d565b6001600160a01b03165f908152600a602052604090207fdec2bacdd2f05b59de34da9b523dff8be42e5e38e818c82fdb0bae774387a7249061200e906120088661248e565b906124bf565b604080516001600160d01b039384168152919092166020820152a25f80611f45565b50831515611f34565b60ff811461204a5761036590612560565b50604051600654815f61205c836102bd565b80835292600181169081156120df5750600114612080575b61036592500382610309565b5060065f90815290917ff652222313e28459528d920b65115c16c04f3efc82aaedc97be59f3f377c0d3f5b8183106120c357505090602061036592820101612074565b60209193508060019154838588010152019101909183926120ab565b6020925061036594915060ff191682840152151560051b820101612074565b60ff811461210f5761036590612560565b50604051600754815f612121836102bd565b80835292600181169081156120df57506001146121445761036592500382610309565b5060075f90815290917fa66cc928b5edb82af9bd49922954155ab7b0942694bea4ce44661d9a8736c6885b81831061218757505090602061036592820101612074565b602091935080600191548385880101520191019091839261216f565b307f00000000000000000000000000000000000000000000000000000000000000006001600160a01b03161480612296575b156121fe577f000000000000000000000000000000000000000000000000000000000000000090565b60405160208101907f8b73c3c69bb8fe3d512ecc4cf759cc79239f7b179b0ffacaa9a75d522b39400f82527f000000000000000000000000000000000000000000000000000000000000000060408201527f000000000000000000000000000000000000000000000000000000000000000060608201524660808201523060a082015260a0815261229060c082610309565b51902090565b507f000000000000000000000000000000000000000000000000000000000000000046146121d5565b91907f7fffffffffffffffffffffffffffffff5d576e7357a4501ddfe92f46681b20a08411612341579160209360809260ff5f9560405194855216868401526040830152606082015282805260015afa15612336575f516001600160a01b0381161561232c57905f905f90565b505f906001905f90565b6040513d5f823e3d90fd5b5050505f9160039190565b6004111561129f57565b61235f8161234c565b80612368575050565b6123718161234c565b600181036123885763f645eedf60e01b5f5260045ffd5b6123918161234c565b600281036123ac575063fce698f760e01b5f5260045260245ffd5b806123b860039261234c565b146123c05750565b6335e2f38360e21b5f5260045260245ffd5b6001600160a01b031690811561243a575b6110d5916001916001600160a01b0316908115612422575b5f908152600960205260408082205492825290205460a083901b8390039081169116611f18565b61243361242e8461248e565b61252b565b50506123fb565b612444600161248e565b9161244e43611d32565b92612459600b611a70565b6001600160d01b03918216908216019290831161083a576110d59360019361248291600b6126db565b905050915091506123e3565b6001600160d01b0381116124a8576001600160d01b031690565b6306dfcc6560e41b5f5260d060045260245260445ffd5b906124c943611d32565b906124d383611a70565b6001600160d01b03918216908216039190821161083a576124f3926126db565b9091565b9061250143611d32565b9061250b83611a70565b6001600160d01b03918216908216019190821161083a576124f3926126db565b61253443611d32565b9061253f600b611a70565b6001600160d01b039182169082160390811161083a576124f391600b6126db565b60ff811690601f821161259257604080519261257c8285610309565b602084526020840191601f190136833783525290565b632cd44ac360e21b5f5260045ffd5b9091906125bf6001600160a01b038416801515908161260757501590565b6125c857505050565b6001600160a01b03166125e757637e27328960e01b5f5260045260245ffd5b63177e802f60e01b5f526001600160a01b0390911660045260245260445ffd5b6001600160a01b03841680821492508215612647575b50811561262957501590565b5f858152600460205260409020546001600160a01b03161415919050565b9091505f52600560205260ff6126708660405f209060018060a01b03165f5260205260405f2090565b5416905f61261d565b908154600160401b81101561032b57600181018084558110156126c7575f9283526020928390208251929093015160301b65ffffffffffff191665ffffffffffff9290921691909117910155565b634e487b7160e01b5f52603260045260245ffd5b80549293928015612787576126f26126fd9161181f565b825f5260205f200190565b8054603081901c9365ffffffffffff9182169291811680841161277857879303612744575061274092509065ffffffffffff82549181199060301b169116179055565b9190565b915050612740916127646127566110c6565b65ffffffffffff9093168352565b6001600160d01b0386166020830152612679565b632520601d60e01b5f5260045ffd5b50906127ac916127986127566110c6565b6001600160d01b0385166020830152612679565b5f919056fea26469706673582212208434ed27ea65ca86dd173245245932a72e802dbafb44a8ab17194346616afb9864736f6c634300081c0033307edb14d46e43e3a7232886d692798e4129f8bb711ca4ce6cf43e2c55fc8e96ed0c126de9f7a3a6c1b314a7d442d0826e437d89ec86111e429cb740f519fee5","linkReferences":{}},"methodIdentifiers":{"CLOCK_MODE()":"4bf5d7e9","approve(address,uint256)":"095ea7b3","balanceOf(address)":"70a08231","burn(uint256)":"42966c68","clock()":"91ddadf4","delegate(address)":"5c19a95c","delegateBySig(address,uint256,uint256,uint8,bytes32,bytes32)":"c3cda520","delegates(address)":"587cde1e","eip712Domain()":"84b0196e","getApproved(uint256)":"081812fc","getPastTotalSupply(uint256)":"8e539e8c","getPastVotes(address,uint256)":"3a46b1a8","getVotes(address)":"9ab24eb0","isApprovedForAll(address,address)":"e985e9c5","joinOpen()":"c749ea2c","joinPolicy()":"cdd3dd4e","memberSince(address)":"0d469170","metadataURI()":"03ee438c","mintTo(address)":"755edd17","name()":"06fdde03","nonces(address)":"7ecebe00","owner()":"8da5cb5b","ownerOf(uint256)":"6352211e","renounceOwnership()":"715018a6","safeTransferFrom(address,address,uint256)":"42842e0e","safeTransferFrom(address,address,uint256,bytes)":"b88d4fde","setApprovalForAll(address,bool)":"a22cb465","setJoinPolicy(uint8)":"2da20628","setMetadataURI(string)":"750521f5","supportsInterface(bytes4)":"01ffc9a7","symbol()":"95d89b41","tokenURI(uint256)":"c87b56dd","transferFrom(address,address,uint256)":"23b872dd","transferOwnership(address)":"f2fde38b"},"id":74}