{"abi":[{"type":"function","name":"createOrg","inputs":[{"name":"p","type":"tuple","internalType":"struct OrgFactory.OrgParams","components":[{"name":"name","type":"string","internalType":"string"},{"name":"symbol","type":"string","internalType":"string"},{"name":"metadataURI","type":"string","internalType":"string"},{"name":"votingDelay","type":"uint48","internalType":"uint48"},{"name":"votingPeriod","type":"uint32","internalType":"uint32"},{"name":"proposalThreshold","type":"uint256","internalType":"uint256"},{"name":"quorumPercent","type":"uint256","internalType":"uint256"},{"name":"joinPolicy","type":"uint8","internalType":"enum MembershipNFT.JoinPolicy"}]}],"outputs":[{"name":"membership","type":"address","internalType":"address"},{"name":"governor","type":"address","internalType":"address"}],"stateMutability":"nonpayable"},{"type":"event","name":"OrgCreated","inputs":[{"name":"creator","type":"address","indexed":true,"internalType":"address"},{"name":"membership","type":"address","indexed":false,"internalType":"address"},{"name":"governor","type":"address","indexed":false,"internalType":"address"},{"name":"name","type":"string","indexed":false,"internalType":"string"}],"anonymous":false}],"bytecode":{"object":"0x60808060405234601557617498908161001a8239f35b5f80fdfe6080806040526004361015610012575f80fd5b5f5f3560e01c63978fe1a814610026575f80fd5b34610323576020366003190112610323576004359067ffffffffffffffff8211610323578160040190610100600319843603011261032357610068828061036a565b9490610077602486018561036a565b9091610086604488018761036a565b60e48901359960038b1015610323576131c7958688019588871067ffffffffffffffff881117610356576100d06100ec966100de948b9a6103e08c3960a08a5260a08a019161039d565b91878303602089015261039d565b91848303604086015261039d565b9087606082015260803091015203905ff09283156103185761010e838061036a565b6001600160a01b0390951694919065ffffffffffff606483013590811691908290036103235760848301359063ffffffff82168092036103235760405194613ebc948587019387851067ffffffffffffffff8611176103565761018560a09460c4948a996135a78b3960c0885260c088019161039d565b958b60208701526040860152606085015260a48101356080850152013591015203905ff09384156103185760405163755edd1760e01b81523360048201526020816024815f895af1801561031857610327575b5061029c57823b1561028e5760405163f2fde38b60e01b8152336004820152818160248183885af1801561029157610279575b505061026a7f15e6456537aa010959a6725b3efd57e0168ca385537c62eae2a4bf4a2fe7c7716102486040955b6001600160a01b0316938061036a565b929086519182918783528660208401526060898401523395606084019161039d565b0390a282519182526020820152f35b6102848280926103bd565b61028e578061020b565b80fd5b6040513d84823e3d90fd5b50813b156103235760405163f2fde38b60e01b81526001600160a01b0384166004820152925f8460248183875af19384156103185761024861026a927f15e6456537aa010959a6725b3efd57e0168ca385537c62eae2a4bf4a2fe7c77192604097610308575b50610238565b5f610312916103bd565b5f610302565b6040513d5f823e3d90fd5b5f80fd5b6020813d60201161034e575b81610340602093836103bd565b8101031261032357516101d8565b3d9150610333565b634e487b7160e01b5f52604160045260245ffd5b903590601e1981360301821215610323570180359067ffffffffffffffff82116103235760200191813603831361032357565b908060209392818452848401375f828201840152601f01601f1916010190565b90601f8019910116810190811067ffffffffffffffff8211176103565760405256fe6101608060405234610659576131c7803803809161001d828561065d565b8339810160a0828203126106595781516001600160401b0381116106595781610047918401610680565b60208301516001600160401b0381116106595782610066918501610680565b604084015190926001600160401b03821161065957610086918501610680565b90606084015193600385101561065957608001516001600160a01b0381169190829003610659576040938451916100bd868461065d565b60018352603160f81b6020840190815281519092906001600160401b038111610471575f54600181811c9116801561064f575b602082101461045357601f81116105ed575b50806020601f821160011461058c575f91610581575b508160011b915f199060031b1c1916175f555b8051906001600160401b0382116104715760015490600182811c92168015610577575b60208310146104535781601f849311610509575b50602090601f83116001146104a3575f92610498575b50508160011b915f199060031b1c1916176001555b610196816106ff565b610120526101a383610867565b6101405260208151910120918260e05251902080610100524660a05284519060208201927f8b73c3c69bb8fe3d512ecc4cf759cc79239f7b179b0ffacaa9a75d522b39400f84528683015260608201524660808201523060a082015260a0815261020e60c08261065d565b5190206080523060c052801561048557600c80546001600160a01b0319811683179091556001600160a01b03167f8be0079c531659141344cd1fd0a4f28419497f9722a3daafe3b4186f6b6457e05f80a38051926001600160401b03841161047157600d54600181811c91168015610467575b602082101461045357601f81116103f0575b50602093601f811160011461036b57602061030e9392825f5160206131a75f395f51905f52935f5160206131875f395f51905f5297985f91610360575b508160011b915f199060031b1c191617600d555b600c805460ff60a01b191660a083901b60ff60a01b161790558651908152a18351918291826106d5565b0390a1516127e790816109a08239608051816121dc015260a05181612299015260c051816121a6015260e0518161222b0152610100518161225101526101205181610d1501526101405181610d3e0152f35b90508501515f6102d0565b601f198116600d5f52855f20905f5b8181106103d85750926001836020935f5160206131875f395f51905f5298995f5160206131a75f395f51905f529661030e9998106103c0575b5050811b01600d556102e4565b8701515f1960f88460031b161c191690555f806103b3565b8588015183556020978801976001909301920161037a565b600d5f527fd7b6990105719101dabeb77144f2a3385c8033acd3af97e9423a695e81ad1eb5601f860160051c81019160208710610449575b601f0160051c01905b81811061043e5750610293565b5f8155600101610431565b9091508190610428565b634e487b7160e01b5f52602260045260245ffd5b90607f1690610281565b634e487b7160e01b5f52604160045260245ffd5b631e4fbdf760e01b5f525f60045260245ffd5b015190505f80610178565b60015f9081528281209350601f198516905b8181106104f157509084600195949392106104d9575b505050811b0160015561018d565b01515f1960f88460031b161c191690555f80806104cb565b929360206001819287860151815501950193016104b5565b60015f529091507fb10e2d527612073b26eecdfd717e6a320cf44b4afac2b0732d9fcbe2b7fa0cf6601f840160051c8101916020851061056d575b90601f859493920160051c01905b81811061055f5750610162565b5f8155849350600101610552565b9091508190610544565b91607f169161014e565b90508301515f610118565b5f8080528181209250601f198416905b8181106105d5575090836001949392106105bd575b5050811b015f5561012b565b8501515f1960f88460031b161c191690555f806105b1565b9192602060018192868a01518155019401920161059c565b5f80527f290decd9548b62a8d60345a988386fc84ba6bc95484008f6362f93160ef3e563601f830160051c81019160208410610645575b601f0160051c01905b81811061063a5750610102565b5f815560010161062d565b9091508190610624565b90607f16906100f0565b5f80fd5b601f909101601f19168101906001600160401b0382119082101761047157604052565b81601f82011215610659578051906001600160401b03821161047157604051926106b4601f8401601f19166020018561065d565b8284526020838301011161065957815f9260208093018386015e8301015290565b602060409281835280519182918282860152018484015e5f828201840152601f01601f1916010190565b908151602081105f1461075a575090601f81511161073957602081519101516020821061072a571790565b5f198260200360031b1b161790565b60405163305a27a960e01b815290819061075690600483016106d5565b0390fd5b6001600160401b03811161047157600654600181811c9116801561085d575b602082101461045357601f811161082a575b50602092601f82116001146107c957928192935f926107be575b50508160011b915f199060031b1c19161760065560ff90565b015190505f806107a5565b601f1982169360065f52805f20915f5b86811061081257508360019596106107fa575b505050811b0160065560ff90565b01515f1960f88460031b161c191690555f80806107ec565b919260206001819286850151815501940192016107d9565b60065f52601f60205f20910160051c810190601f830160051c015b818110610852575061078b565b5f8155600101610845565b90607f1690610779565b908151602081105f14610892575090601f81511161073957602081519101516020821061072a571790565b6001600160401b03811161047157600754600181811c91168015610995575b602082101461045357601f8111610962575b50602092601f821160011461090157928192935f926108f6575b50508160011b915f199060031b1c19161760075560ff90565b015190505f806108dd565b601f1982169360075f52805f20915f5b86811061094a5750836001959610610932575b505050811b0160075560ff90565b01515f1960f88460031b161c191690555f8080610924565b91926020600181928685015181550194019201610911565b60075f52601f60205f20910160051c810190601f830160051c015b81811061098a57506108c3565b5f815560010161097d565b90607f16906108b156fe60806040526004361015610011575f80fd5b5f3560e01c806301ffc9a71461023457806303ee438c1461022f57806306fdde031461022a578063081812fc14610225578063095ea7b3146102205780630d4691701461021b57806323b872dd146102165780632da20628146102115780633a46b1a81461020c57806342842e0e1461020757806342966c68146102025780634bf5d7e9146101fd578063587cde1e146101f85780635c19a95c146101f35780636352211e146101ee57806370a08231146101e9578063715018a6146101e4578063750521f5146101df578063755edd17146101da5780637ecebe00146101d557806384b0196e146101d05780638da5cb5b146101cb5780638e539e8c146101c657806391ddadf4146101c157806395d89b41146101bc5780639ab24eb0146101b7578063a22cb465146101b2578063b88d4fde146101ad578063c3cda520146101a8578063c749ea2c146101a3578063c87b56dd1461019e578063cdd3dd4e14610199578063e985e9c5146101945763f2fde38b1461018f575f80fd5b6113a4565b611348565b611320565b6112a4565b61125f565b61117b565b6110f3565b610ff8565b610fb1565b610f0c565b610ee1565b610e22565b610dfa565b610cfd565b610cc5565b610c9a565b610b10565b610ab5565b610a8a565b610a5a565b610a38565b6109f8565b610968565b610874565b61083f565b61075a565b6106e6565b6106cf565b610653565b61054c565b6104e4565b610442565b610368565b61024f565b6001600160e01b031981160361024b57565b5f80fd5b3461024b57602036600319011261024b57602060043561026e81610239565b63ffffffff60e01b166380ac58cd60e01b81149081156102ac575b811561029b575b506040519015158152f35b6301ffc9a760e01b1490505f610290565b635b5e139f60e01b81149150610289565b90600182811c921680156102eb575b60208310146102d757565b634e487b7160e01b5f52602260045260245ffd5b91607f16916102cc565b634e487b7160e01b5f52604160045260245ffd5b90601f8019910116810190811067ffffffffffffffff82111761032b57604052565b6102f5565b805180835260209291819084018484015e5f828201840152601f01601f1916010190565b906020610365928181520190610330565b90565b3461024b575f36600319011261024b576040515f600d54610388816102bd565b808452906001811690811561041e57506001146103c0575b6103bc836103b081850382610309565b60405191829182610354565b0390f35b600d5f9081527fd7b6990105719101dabeb77144f2a3385c8033acd3af97e9423a695e81ad1eb5939250905b808210610404575090915081016020016103b06103a0565b9192600181602092548385880101520191019092916103ec565b60ff191660208086019190915291151560051b840190910191506103b090506103a0565b3461024b575f36600319011261024b576040515f5f54610461816102bd565b808452906001811690811561041e5750600114610488576103bc836103b081850382610309565b5f8080527f290decd9548b62a8d60345a988386fc84ba6bc95484008f6362f93160ef3e563939250905b8082106104ca575090915081016020016103b06103a0565b9192600181602092548385880101520191019092916104b2565b3461024b57602036600319011261024b576004356105018161167e565b505f526004602052602060018060a01b0360405f205416604051908152f35b600435906001600160a01b038216820361024b57565b602435906001600160a01b038216820361024b57565b3461024b57604036600319011261024b57610565610520565b602435906105728261167e565b33151580610640575b80610602575b6105ef576105ed926105ce9181906001600160a01b0385811691167f8c5be1e5ebec7d5bd14f71427d1e84f3dd0314c0f7b2291e5b200ac8c7c3b9255f80a45f52600460205260405f2090565b80546001600160a01b0319166001600160a01b03909216919091179055565b005b63a9fbf51f60e01b5f523360045260245ffd5b5060ff610638336106238460018060a01b03165f52600560205260405f2090565b9060018060a01b03165f5260205260405f2090565b541615610581565b506001600160a01b03811633141561057b565b3461024b57602036600319011261024b576001600160a01b03610674610520565b165f52600f602052602067ffffffffffffffff60405f205416604051908152f35b606090600319011261024b576004356001600160a01b038116810361024b57906024356001600160a01b038116810361024b579060443590565b3461024b576105ed6106e036610695565b9161142a565b3461024b57602036600319011261024b57600435600381101561024b576107557fed0c126de9f7a3a6c1b314a7d442d0826e437d89ec86111e429cb740f519fee5916107306117ab565b600c805460ff60a01b191660a083901b60ff60a01b161790556040519182918261130d565b0390a1005b3461024b57604036600319011261024b57610773610520565b6001600160a01b03165f908152600a602052604090206107946024356117d2565b8154905f8291600584116107e7575b6107ae935084611ebf565b90816107cc57505060205f5b6040516001600160d01b039091168152f35b6107d760209261181f565b905f52815f20015460301c6107ba565b91926107f281611d61565b810390811161083a576107ae93855f5265ffffffffffff8260205f2001541665ffffffffffff8516105f146108285750916107a3565b9291506108349061182d565b906107a3565b61180b565b3461024b576105ed61085036610695565b9060405192610860602085610309565b5f845261086e83838361142a565b33611c00565b3461024b57602036600319011261024b576004355f818152600260205260409020546001600160a01b031690811561093857600c547f3ac963493df564de734d98633f1145d21512e282ba4c02d3c1011119bf7f28629161092a916001600160a01b03163314801561092f575b6108ea90611587565b6108f38161183b565b6001600160a01b0384165f908152600f60205260409020805467ffffffffffffffff191690555b6040519081529081906020820190565b0390a2005b503384146108e1565b60405162461bcd60e51b81526020600482015260086024820152673737903a37b5b2b760c11b6044820152606490fd5b3461024b575f36600319011261024b5761098143611d32565b65ffffffffffff8061099243611d32565b169116036109e9576103bc6040516109ab604082610309565b601d81527f6d6f64653d626c6f636b6e756d6265722666726f6d3d64656661756c740000006020820152604051918291602083526020830190610330565b6301bfc1c560e61b5f5260045ffd5b3461024b57602036600319011261024b576001600160a01b03610a19610520565b165f526009602052602060018060a01b0360405f205416604051908152f35b3461024b57602036600319011261024b576105ed610a54610520565b33611901565b3461024b57602036600319011261024b576020610a7860043561167e565b6040516001600160a01b039091168152f35b3461024b57602036600319011261024b576020610aad610aa8610520565b6115c4565b604051908152f35b3461024b575f36600319011261024b57610acd6117ab565b600c80546001600160a01b031981169091555f906001600160a01b03167f8be0079c531659141344cd1fd0a4f28419497f9722a3daafe3b4186f6b6457e08280a3005b3461024b57602036600319011261024b5760043567ffffffffffffffff811161024b573660238201121561024b5780600401359067ffffffffffffffff821161024b57366024838301011161024b5760240190610b6b6117ab565b67ffffffffffffffff811161032b57610b8e81610b89600d546102bd565b6115f5565b5f91601f8211600114610bfa57610bdc82807f307edb14d46e43e3a7232886d692798e4129f8bb711ca4ce6cf43e2c55fc8e96955f91610bef575b508160011b915f199060031b1c19161790565b600d555b61075560405192839283611645565b90508301355f610bc9565b600d5f52601f1982167fd7b6990105719101dabeb77144f2a3385c8033acd3af97e9423a695e81ad1eb5905f5b818110610c82575093837f307edb14d46e43e3a7232886d692798e4129f8bb711ca4ce6cf43e2c55fc8e969510610c69575b5050600182811b01600d55610be0565b8201355f19600385901b60f8161c191690555f80610c59565b83860135835560209586019560019093019201610c27565b3461024b57602036600319011261024b576020610aad610cb8610520565b610cc06117ab565b611974565b3461024b57602036600319011261024b576001600160a01b03610ce6610520565b165f526008602052602060405f2054604051908152f35b3461024b575f36600319011261024b57610da1610d397f0000000000000000000000000000000000000000000000000000000000000000612039565b610d627f00000000000000000000000000000000000000000000000000000000000000006120fe565b6020604051610d718282610309565b5f815281610daf81830194601f198301368737604051978897600f60f81b895260e0858a015260e0890190610330565b908782036040890152610330565b914660608701523060808701525f60a087015285830360c087015251918281520192915f5b828110610de357505050500390f35b835185528695509381019392810192600101610dd4565b3461024b575f36600319011261024b57600c546040516001600160a01b039091168152602090f35b3461024b57602036600319011261024b57610e3e6004356117d2565b600b54905f829160058411610e8d575b610e5a9350600b611ebf565b80610e6b57506040515f8152602090f35b610e88610e7960209261181f565b600b5f52825f20015460301c90565b6107ba565b9192610e9881611d61565b810390811161083a57610e5a93600b5f5265ffffffffffff8260205f2001541665ffffffffffff8516105f14610ecf575091610e4e565b929150610edb9061182d565b90610e4e565b3461024b575f36600319011261024b576020610efc43611d32565b65ffffffffffff60405191168152f35b3461024b575f36600319011261024b576040515f600154610f2c816102bd565b808452906001811690811561041e5750600114610f53576103bc836103b081850382610309565b60015f9081527fb10e2d527612073b26eecdfd717e6a320cf44b4afac2b0732d9fcbe2b7fa0cf6939250905b808210610f97575090915081016020016103b06103a0565b919260018160209254838588010152019101909291610f7f565b3461024b57602036600319011261024b576001600160a01b03610fd2610520565b165f52600a602052602060018060d01b03610fef60405f20611a70565b16604051908152f35b3461024b57604036600319011261024b57611011610520565b602435801515810361024b5733156110b3576001600160a01b0382169182156110a0578161105d61106e92335f52600560205260405f209060018060a01b03165f5260205260405f2090565b9060ff801983541691151516179055565b604051901515815233907f17307eab39ab6107e8899845ad3d59bd9653f200f220920489ca2b5937696c3190602090a3005b82630b61174360e31b5f5260045260245ffd5b63a9fbf51f60e01b5f525f60045260245ffd5b604051906110d5604083610309565b565b67ffffffffffffffff811161032b57601f01601f191660200190565b3461024b57608036600319011261024b5761110c610520565b611114610536565b906044356064359267ffffffffffffffff841161024b573660238501121561024b57836004013592611145846110d7565b936111536040519586610309565b808552366024828801011161024b576020815f9260246105ed9901838901378601015261166c565b3461024b5760c036600319011261024b57611194610520565b6044359060243560643560ff8116810361024b5760843560a4359185421161124c5791611240916112479360426105ed9860405160208101917fe48329057bfd03d55e49b547132e39cffd9c1820ad7b9d4c5307691425d15adf835260018060a01b038b16604083015289606083015260808201526080815261121860a082610309565b5190206112236121a3565b906040519161190160f01b83526002830152602282015220611c9a565b9182611cb2565b611901565b85632341d78760e11b5f5260045260245ffd5b3461024b575f36600319011261024b5760ff600c5460a01c16600381101561129f57611290576020610aad33611974565b631bb5f5b360e31b5f5260045ffd5b6112f9565b3461024b57602036600319011261024b576112c060043561167e565b505f6040516112d0602082610309565b526103bc6040516112e2602082610309565b5f8152604051918291602083526020830190610330565b634e487b7160e01b5f52602160045260245ffd5b91906020830192600382101561129f5752565b3461024b575f36600319011261024b576103bc60ff600c5460a01c166040519182918261130d565b3461024b57604036600319011261024b57602060ff611398611368610520565b611370610536565b6001600160a01b039182165f9081526005865260408082209290931681526020919091522090565b54166040519015158152f35b3461024b57602036600319011261024b576113bd610520565b6113c56117ab565b6001600160a01b0316801561141757600c80546001600160a01b0319811683179091556001600160a01b03167f8be0079c531659141344cd1fd0a4f28419497f9722a3daafe3b4186f6b6457e05f80a3005b631e4fbdf760e01b5f525f60045260245ffd5b6001600160a01b03821692918315611574575f838152600260205260409020546001600160a01b031615158061156c575b61155d575f838152600260205260409020546114f3906001600160a01b0316913361154d575b6001600160a01b03831695859087611521575b6001600160a01b0383165f908152600360205260409020600181540190556114c8836105ce845f52600260205260405f2090565b877fddf252ad1be2c89b69c2b068fc378daa952ba7f163c4a11628f55a4df523b3ef5f80a4826123d2565b506001600160a01b031680830361150957505050565b6364283d7b60e01b5f5260045260245260445260645ffd5b61152a82611d10565b6001600160a01b0385165f90815260036020526040902080545f19019055611494565b6115588533856125a1565b611481565b638574adcf60e01b5f5260045ffd5b50600161145b565b633250574960e11b5f525f60045260245ffd5b1561158e57565b60405162461bcd60e51b815260206004820152600e60248201526d1b9bdd08185d5d1a1bdc9a5e995960921b6044820152606490fd5b6001600160a01b031680156115e2575f52600360205260405f205490565b6322718ad960e21b5f525f60045260245ffd5b601f8111611601575050565b600d5f5260205f20906020601f840160051c8301931061163b575b601f0160051c01905b818110611630575050565b5f8155600101611625565b909150819061161c565b90918060409360208452816020850152848401375f828201840152601f01601f1916010190565b906110d593929161086e83838361142a565b5f818152600260205260409020546001600160a01b03169081156116a0575090565b637e27328960e01b5f5260045260245ffd5b5f828152600260205260409020546001600160a01b0316151580611799575b61155d575f828152600260205260409020546001600160a01b0316916103659190838061176d575b6001600160a01b038316908161174a575b611720846105ce855f52600260205260405f2090565b7fddf252ad1be2c89b69c2b068fc378daa952ba7f163c4a11628f55a4df523b3ef5f80a4826123d2565b6001600160a01b0384165f9081526003602052604090206001815401905561170a565b61177682611d10565b6001600160a01b0385165f90815260036020526040902080545f190190556116f9565b506001600160a01b03811615156116d1565b600c546001600160a01b031633036117bf57565b63118cdaa760e01b5f523360045260245ffd5b65ffffffffffff6117e243611d32565b16808210156117f5575061036590611d32565b90637669fc0f60e11b5f5260045260245260445ffd5b634e487b7160e01b5f52601160045260245ffd5b5f1981019190821161083a57565b906001820180921161083a57565b5f818152600260205260409020546001600160a01b03161515806118fa575b61155d575f818152600260205260408120546001600160a01b031680159183908284156118ce575b611898826105ce855f52600260205260405f2090565b7fddf252ad1be2c89b69c2b068fc378daa952ba7f163c4a11628f55a4df523b3ef8280a46118c65f826123d2565b506116a05750565b6118d783611d10565b6001600160a01b0384165f90815260036020526040902082198154019055611882565b505f61185a565b6001600160a01b038181165f81815260096020526040902080546001600160a01b03198116848716179091556110d59492169261196e916001600160a01b0384169085907f3134e8a2e6d97e929a7e54011ea5485d7d196dd5f0ba4d4ef95803e8e3fc257f5f80a46115c4565b91611f18565b9061197e826115c4565b611a4f57600e545f19811461083a5760010180600e558092604051906119a5602083610309565b5f82526001600160a01b038116928315611574576001600160a01b036119cb82846116b2565b16611a3c5761091a82611a047f7f3b9effe05cfb4f31f854004de03199fd03fe56bf38a48b2aa9a9f4402d6e239584611a379633611b0f565b6001600160a01b03165f908152600f60205260409020805467ffffffffffffffff191667ffffffffffffffff4216179055565b0390a2565b6339e3563760e11b5f525f60045260245ffd5b50630268f92960e01b5f9081526001600160a01b0391909116600452602490fd5b80549081611a7e5750505f90565b815f1981011161083a575f525f199060205f2001015460301c90565b9081602091031261024b575161036581610239565b6001600160a01b03918216815291166020820152604081019190915260806060820181905261036592910190610330565b3d15611b0a573d90611af1826110d7565b91611aff6040519384610309565b82523d5f602084013e565b606090565b9092833b611b1e575b50505050565b604051630a85bd0160e11b81529260209284928392611b42925f9060048601611aaf565b03815f6001600160a01b0387165af15f9181611bcf575b50611b935750611b67611ae0565b8051919082611b8c57633250574960e11b5f526001600160a01b03821660045260245ffd5b6020915001fd5b6001600160e01b03191663757a42ff60e11b01611bb457505f808080611b18565b633250574960e11b5f526001600160a01b031660045260245ffd5b611bf291925060203d602011611bf9575b611bea8183610309565b810190611a9a565b905f611b59565b503d611be0565b939193843b611c11575b5050505050565b611c326020936040519586948594630a85bd0160e11b865260048601611aaf565b03815f6001600160a01b0387165af15f9181611c79575b50611c575750611b67611ae0565b6001600160e01b03191663757a42ff60e11b01611bb457505f80808080611c0a565b611c9391925060203d602011611bf957611bea8183610309565b905f611c49565b916103659391611ca9936122bf565b90929192612356565b6001600160a01b03165f81815260086020526040902080546001810190915591829003611cdd575050565b6301d4b62360e61b5f5260045260245260445ffd5b8115611cfc570490565b634e487b7160e01b5f52601260045260245ffd5b611d22905f52600460205260405f2090565b80546001600160a01b0319169055565b65ffffffffffff8111611d4a5765ffffffffffff1690565b6306dfcc6560e41b5f52603060045260245260445ffd5b600181111561036557806001600160801b821015611e82575b611e28611e1e611e14611e0a611e00611df6611de5611e2f9760048a600160401b611e349c1015611e75575b640100000000811015611e68575b62010000811015611e5b575b610100811015611e4e575b6010811015611e41575b1015611e39575b60030260011c90565b611def818b611cf2565b0160011c90565b611def818a611cf2565b611def8189611cf2565b611def8188611cf2565b611def8187611cf2565b611def8186611cf2565b8093611cf2565b821190565b900390565b60011b611ddc565b60041c9160021b91611dd5565b60081c9160041b91611dcb565b60101c9160081b91611dc0565b60201c9160101b91611db4565b60401c9160201b91611da6565b5050611e34611e2f611e28611e1e611e14611e0a611e00611df6611de5611ea98a60801c90565b9850600160401b9750611d7a9650505050505050565b905b838310611ece5750505090565b90919280841860011c8185160190835f5265ffffffffffff8260205f2001541665ffffffffffff8416105f14611f085750925b9190611ec1565b9350611f139061182d565b611f01565b6001600160a01b03808316939291908116908185141580612030575b611f3f575050505050565b81611fc3575b505082611f54575b8080611c0a565b6001600160a01b03165f908152600a602052604090207fdec2bacdd2f05b59de34da9b523dff8be42e5e38e818c82fdb0bae774387a72491611fa091611f9a909161248e565b906124f7565b604080516001600160d01b039384168152919092166020820152a25f8080611f4d565b6001600160a01b03165f908152600a602052604090207fdec2bacdd2f05b59de34da9b523dff8be42e5e38e818c82fdb0bae774387a7249061200e906120088661248e565b906124bf565b604080516001600160d01b039384168152919092166020820152a25f80611f45565b50831515611f34565b60ff811461204a5761036590612560565b50604051600654815f61205c836102bd565b80835292600181169081156120df5750600114612080575b61036592500382610309565b5060065f90815290917ff652222313e28459528d920b65115c16c04f3efc82aaedc97be59f3f377c0d3f5b8183106120c357505090602061036592820101612074565b60209193508060019154838588010152019101909183926120ab565b6020925061036594915060ff191682840152151560051b820101612074565b60ff811461210f5761036590612560565b50604051600754815f612121836102bd565b80835292600181169081156120df57506001146121445761036592500382610309565b5060075f90815290917fa66cc928b5edb82af9bd49922954155ab7b0942694bea4ce44661d9a8736c6885b81831061218757505090602061036592820101612074565b602091935080600191548385880101520191019091839261216f565b307f00000000000000000000000000000000000000000000000000000000000000006001600160a01b03161480612296575b156121fe577f000000000000000000000000000000000000000000000000000000000000000090565b60405160208101907f8b73c3c69bb8fe3d512ecc4cf759cc79239f7b179b0ffacaa9a75d522b39400f82527f000000000000000000000000000000000000000000000000000000000000000060408201527f000000000000000000000000000000000000000000000000000000000000000060608201524660808201523060a082015260a0815261229060c082610309565b51902090565b507f000000000000000000000000000000000000000000000000000000000000000046146121d5565b91907f7fffffffffffffffffffffffffffffff5d576e7357a4501ddfe92f46681b20a08411612341579160209360809260ff5f9560405194855216868401526040830152606082015282805260015afa15612336575f516001600160a01b0381161561232c57905f905f90565b505f906001905f90565b6040513d5f823e3d90fd5b5050505f9160039190565b6004111561129f57565b61235f8161234c565b80612368575050565b6123718161234c565b600181036123885763f645eedf60e01b5f5260045ffd5b6123918161234c565b600281036123ac575063fce698f760e01b5f5260045260245ffd5b806123b860039261234c565b146123c05750565b6335e2f38360e21b5f5260045260245ffd5b6001600160a01b031690811561243a575b6110d5916001916001600160a01b0316908115612422575b5f908152600960205260408082205492825290205460a083901b8390039081169116611f18565b61243361242e8461248e565b61252b565b50506123fb565b612444600161248e565b9161244e43611d32565b92612459600b611a70565b6001600160d01b03918216908216019290831161083a576110d59360019361248291600b6126db565b905050915091506123e3565b6001600160d01b0381116124a8576001600160d01b031690565b6306dfcc6560e41b5f5260d060045260245260445ffd5b906124c943611d32565b906124d383611a70565b6001600160d01b03918216908216039190821161083a576124f3926126db565b9091565b9061250143611d32565b9061250b83611a70565b6001600160d01b03918216908216019190821161083a576124f3926126db565b61253443611d32565b9061253f600b611a70565b6001600160d01b039182169082160390811161083a576124f391600b6126db565b60ff811690601f821161259257604080519261257c8285610309565b602084526020840191601f190136833783525290565b632cd44ac360e21b5f5260045ffd5b9091906125bf6001600160a01b038416801515908161260757501590565b6125c857505050565b6001600160a01b03166125e757637e27328960e01b5f5260045260245ffd5b63177e802f60e01b5f526001600160a01b0390911660045260245260445ffd5b6001600160a01b03841680821492508215612647575b50811561262957501590565b5f858152600460205260409020546001600160a01b03161415919050565b9091505f52600560205260ff6126708660405f209060018060a01b03165f5260205260405f2090565b5416905f61261d565b908154600160401b81101561032b57600181018084558110156126c7575f9283526020928390208251929093015160301b65ffffffffffff191665ffffffffffff9290921691909117910155565b634e487b7160e01b5f52603260045260245ffd5b80549293928015612787576126f26126fd9161181f565b825f5260205f200190565b8054603081901c9365ffffffffffff9182169291811680841161277857879303612744575061274092509065ffffffffffff82549181199060301b169116179055565b9190565b915050612740916127646127566110c6565b65ffffffffffff9093168352565b6001600160d01b0386166020830152612679565b632520601d60e01b5f5260045ffd5b50906127ac916127986127566110c6565b6001600160d01b0385166020830152612679565b5f919056fea26469706673582212208434ed27ea65ca86dd173245245932a72e802dbafb44a8ab17194346616afb9864736f6c634300081c0033307edb14d46e43e3a7232886d692798e4129f8bb711ca4ce6cf43e2c55fc8e96ed0c126de9f7a3a6c1b314a7d442d0826e437d89ec86111e429cb740f519fee5610180604052346100b357610020610015610157565b93909392919261020b565b6040516133d29081610aca823960805181612f28015260a05181612fdf015260c05181612ef2015260e05181612f7701526101005181612f9d015261012051816110f4015261014051816111200152610160518181816113700152818161174801528181611865015281816118ee01528181611b3c01528181611d9e01528181611e4d01528181612228015261237d0152f35b5f80fd5b634e487b7160e01b5f52604160045260245ffd5b601f909101601f19168101906001600160401b038211908210176100ee57604052565b6100b7565b604051906101026040836100cb565b565b6001600160401b0381116100ee57601f01601f191660200190565b51906001600160a01b03821682036100b357565b519065ffffffffffff821682036100b357565b519063ffffffff821682036100b357565b613ebc90813803806040519361016d82866100cb565b843982019060c0838303126100b35782516001600160401b0381116100b357830182601f820112156100b3578051906101a582610104565b936101b360405195866100cb565b828552602083830101116100b357815f9260208093018387015e840101526101dd6020840161011f565b926101ea60408201610133565b926101f760608301610146565b9260a0608084015193015191959493929190565b9390926102d9906102d46102de946102cf6101029960405161022e6040826100cb565b6001815260208101603160f81b81526102468361062b565b610120526102538261071b565b6101405282516020840120918260e05251902080610100524660a0526040519060208201927f8b73c3c69bb8fe3d512ecc4cf759cc79239f7b179b0ffacaa9a75d522b39400f8452604083015260608201524660808201523060a082015260a081526102c060c0826100cb565b5190206080523060c052610377565b610524565b610571565b6105f2565b6001600160a01b03166101605261045c565b90600182811c9216801561031e575b602083101461030a57565b634e487b7160e01b5f52602260045260245ffd5b91607f16916102ff565b601f821161033557505050565b5f5260205f20906020601f840160051c8301931061036d575b601f0160051c01905b818110610362575050565b5f8155600101610357565b909150819061034e565b80519091906001600160401b0381116100ee576103a0816103996003546102f0565b6003610328565b602092601f82116001146103e0576103d0929382915f926103d5575b50508160011b915f199060031b1c19161790565b600355565b015190505f806103bc565b60035f52601f198216937fc2575a0e9e593c00f959f8c92f12db2869c3395a3b0502d05e2516446f71f85b915f5b868110610444575083600195961061042c575b505050811b01600355565b01515f1960f88460031b161c191690555f8080610421565b9192602060018192868501518155019401920161040e565b6064811161050d57600a5490816104ad575f516020613e9c5f395f51905f5291505f5b61049961048a61080d565b610493846108af565b906109c0565b5050604080519182526020820192909252a1565b815f198101116104f957600a5f527fc65a7bb8d6351c1cf70c95a316cc6a92839c986682d98bc35f958f4883f9d2a791909101545f516020613e9c5f395f51905f52919060301c61047f565b634e487b7160e01b5f52601160045260245ffd5b63243e544560e01b5f52600452606460245260445ffd5b6008547fc565b045403dc03c2eea82b81a0465edad9e2e7fc4d97e11421c209da93d7a93604065ffffffffffff81519481851686521693846020820152a165ffffffffffff191617600855565b63ffffffff81169081156105df5769ffffffff000000000000907f7e3f7f0708a84de9203036abaa450dccc85ad5ff52f78c170f3edb55cf5e882860406008549481519063ffffffff8760301c1682526020820152a160301b169069ffffffff000000000000191617600855565b63f1cfbf0560e01b5f525f60045260245ffd5b60075460408051918252602082018390527fccb45da8d5717e6c4544694297c4ba5cf151d455c9bb0ed4fc7a38411bc0546191a1600755565b908151602081105f14610646575090610643906108e0565b90565b6001600160401b0381116100ee57610668816106625f546102f0565b5f610328565b602092601f821160011461069e57610697929382915f926103d55750508160011b915f199060031b1c19161790565b5f5560ff90565b5f8052601f198216937f290decd9548b62a8d60345a988386fc84ba6bc95484008f6362f93160ef3e563915f5b86811061070357508360019596106106eb575b505050811b015f5560ff90565b01515f1960f88460031b161c191690555f80806106de565b919260206001819286850151815501940192016106cb565b908151602081105f14610733575090610643906108e0565b6001600160401b0381116100ee57610757816107506001546102f0565b6001610328565b602092601f821160011461078e57610786929382915f926103d55750508160011b915f199060031b1c19161790565b60015560ff90565b60015f52601f198216937fb10e2d527612073b26eecdfd717e6a320cf44b4afac2b0732d9fcbe2b7fa0cf6915f5b8681106107f557508360019596106107dd575b505050811b0160015560ff90565b01515f1960f88460031b161c191690555f80806107cf565b919260206001819286850151815501940192016107bc565b610160516040516324776b7d60e21b815290602090829060049082906001600160a01b03165afa5f9181610873575b50610643575065ffffffffffff431161085b5765ffffffffffff431690565b6306dfcc6560e41b5f5260306004524360245260445ffd5b9091506020813d6020116108a7575b8161088f602093836100cb565b810103126100b3576108a090610133565b905f61083c565b3d9150610882565b6001600160d01b0381116108c9576001600160d01b031690565b6306dfcc6560e41b5f5260d060045260245260445ffd5b601f81511161090b5760208151910151602082106108fc571790565b5f198260200360031b1b161790565b604460209160405192839163305a27a960e01b83528160048401528051918291826024860152018484015e5f828201840152601f01601f19168101030190fd5b5f198101919082116104f957565b908154680100000000000000008110156100ee57600181018084558110156109ac575f9283526020928390208251929093015160301b65ffffffffffff191665ffffffffffff9290921691909117910155565b634e487b7160e01b5f52603260045260245ffd5b600a549192918015610aa0576109d8610a019161094b565b600a5f527fc65a7bb8d6351c1cf70c95a316cc6a92839c986682d98bc35f958f4883f9d2a80190565b908154610a1d610a168265ffffffffffff1690565b9160301c90565b9265ffffffffffff808416921691808311610a9157869203610a5b57610a5792509065ffffffffffff82549181199060301b169116179055565b9190565b5050610a5790610a7a610a6c6100f3565b65ffffffffffff9092168252565b6001600160d01b03851660208201525b600a610959565b632520601d60e01b5f5260045ffd5b50610ac490610ab0610a6c6100f3565b6001600160d01b0384166020820152610a8a565b5f919056fe6080604052600436101561001a575b3615610018575f80fd5b005b5f3560e01c806301ffc9a71461030457806302a251a3146102ff57806306f3f9e6146102fa57806306fdde03146102f5578063143489d0146102f0578063150b7a02146102eb578063160cbed7146102e65780632656227d146102e15780632d63f693146102dc5780632fe3e261146102d75780633932abb1146102d25780633e4f49e6146102cd57806343859632146102c8578063452115d6146102c35780634bf5d7e9146102be578063544ffc9c146102b957806354fd4d50146102b457806356781388146102af5780635b8d0e0d146102aa5780635f398a14146102a557806360c4247f146102a0578063790518871461029b5780637b3c71d3146102965780637d5e81e2146102915780637ecebe001461028c57806384b0196e146102875780638ff262e31461028257806391ddadf41461027d57806397c3d334146102785780639a802a6d14610273578063a7713a701461026e578063a8f8a6681461024b578063a9a9529414610269578063ab58fb8e14610264578063b58131b01461025f578063bc197c811461025a578063c01f9e3714610255578063c28bc2fa14610250578063c59057e41461024b578063dd4e2ba514610246578063deaaa7cc14610241578063e540d01d1461023c578063eb9019d414610237578063ece40cc114610232578063f23a6e611461022d578063f8ce560a146102285763fc0c546a0361000e576118d9565b611835565b6117e0565b61178b565b6116ea565b611644565b61160a565b6115ab565b611413565b611544565b611526565b611491565b611474565b611441565b611426565b6113e8565b611302565b6112e7565b6112bd565b6111ac565b6110dc565b611071565b610fc3565b610f6e565b610efc565b610ece565b610e4e565b610dac565b610d3e565b610ceb565b610caa565b610c7b565b610b90565b610b3e565b610b0f565b610ac3565b610a89565b610a54565b61090d565b6108db565b6106b7565b61058c565b6104b2565b6103b4565b61038e565b3461038a57602036600319011261038a5760043563ffffffff60e01b811680910361038a576366defe7760e11b8114908115610379575b8115610368575b8115610357575b506040519015158152602090f35b6301ffc9a760e01b1490505f610349565b630271189760e51b81149150610342565b6332a2ad4360e11b8114915061033b565b5f80fd5b3461038a575f36600319011261038a57602063ffffffff60085460301c16604051908152f35b3461038a57602036600319011261038a576004356103d061203c565b60648111610463576001600160d01b036103e861289d565b16906103f2611e38565b916001600160d01b03821161044b577f0553476bf02ef2726e8ce5ced78d63e26e602e4a2257b1f559418e24b463399792610437906001600160d01b03841690612e0f565b5050604080519182526020820192909252a1005b506306dfcc6560e41b5f5260d060045260245260445ffd5b63243e544560e01b5f52600452606460245260445ffd5b805180835260209291819084018484015e5f828201840152601f01601f1916010190565b9060206104af92818152019061047a565b90565b3461038a575f36600319011261038a576040515f6003546104d28161191d565b8084529060018116908115610568575060011461050a575b610506836104fa81850382610614565b6040519182918261049e565b0390f35b60035f9081527fc2575a0e9e593c00f959f8c92f12db2869c3395a3b0502d05e2516446f71f85b939250905b80821061054e575090915081016020016104fa6104ea565b919260018160209254838588010152019101909291610536565b60ff191660208086019190915291151560051b840190910191506104fa90506104ea565b3461038a57602036600319011261038a576004355f526004602052602060018060a01b0360405f205416604051908152f35b600435906001600160a01b038216820361038a57565b602435906001600160a01b038216820361038a57565b604435906001600160a01b038216820361038a57565b634e487b7160e01b5f52604160045260245ffd5b90601f801991011681019081106001600160401b0382111761063557604052565b610600565b60405190610649604083610614565b565b6001600160401b03811161063557601f01601f191660200190565b9291926106728261064b565b916106806040519384610614565b82948184528183011161038a578281602093845f960137010152565b9080601f8301121561038a578160206104af93359101610666565b3461038a57608036600319011261038a576106d06105be565b506106d96105d4565b506064356001600160401b03811161038a576106f990369060040161069c565b50604051630a85bd0160e11b8152602090f35b6001600160401b0381116106355760051b60200190565b9080601f8301121561038a5781359061073b8261070c565b926107496040519485610614565b82845260208085019360051b82010191821161038a57602001915b8183106107715750505090565b82356001600160a01b038116810361038a57815260209283019201610764565b9080601f8301121561038a5781356107a88161070c565b926107b66040519485610614565b81845260208085019260051b82010192831161038a57602001905b8282106107de5750505090565b81358152602091820191016107d1565b9080601f8301121561038a5781356108058161070c565b926108136040519485610614565b81845260208085019260051b8201019183831161038a5760208201905b83821061083f57505050505090565b81356001600160401b03811161038a576020916108618784809488010161069c565b815201910190610830565b608060031982011261038a576004356001600160401b03811161038a578161089691600401610723565b916024356001600160401b03811161038a57826108b591600401610791565b91604435906001600160401b03821161038a576108d4916004016107ee565b9060643590565b3461038a576108fd6108f86108ef3661086c565b92919091611fd5565b612084565b50634844252360e11b5f5260045ffd5b6109266109193661086c565b8183859495969396611fd5565b9161093a6109346004612058565b84612104565b50610963610950845f52600460205260405f2090565b805460ff60f01b1916600160f01b179055565b5f915b936109749161050695612166565b806109c4575b6109bb575b6040518181527f712ae1383f79ac853f8d882153778e0260ef8f03b504e2866e0593e04d2b291f90602090a16040519081529081906020820190565b5f60055561097f565b506109e46109e06005546001600160801b0381169060801c1490565b1590565b61097a565b8351811015610a4a5760019030610a1f610a13610a0684896119ea565b516001600160a01b031690565b6001600160a01b031690565b14610a2b575b016109e9565b610a45610a3882896119ea565b5160208151910120612142565b610a25565b5090929091610966565b3461038a57602036600319011261038a576004355f526004602052602065ffffffffffff60405f205460a01c16604051908152f35b3461038a575f36600319011261038a5760206040517f3e83946653575f9a39005e1545185629e92736b7528ab20ca3816f315424a8118152f35b3461038a575f36600319011261038a57602065ffffffffffff60085416604051908152f35b634e487b7160e01b5f52602160045260245ffd5b6008811015610b0a57602452565b610ae8565b3461038a57602036600319011261038a57610b2b600435611a03565b6040516008821015610b0a576020918152f35b3461038a57604036600319011261038a57602060ff610b84600435610b616105d4565b905f5260098452600360405f20019060018060a01b03165f5260205260405f2090565b54166040519015158152f35b3461038a57610b9e3661086c565b92610bae84838584969596611fd5565b610bb781611a03565b6008811015610b0a571580610c5e575b15610c4857610506610bdb86868686611fd5565b610be6603b82612104565b50610bf9815f52600460205260405f2090565b80546001600160f81b0316600160f81b1790556040518181527f789cf55be980739dad1d0699b93b58e806b51c9d96619bfa8fe0a28abaa7b30c90602090a16040519081529081906020820190565b638fe5d8a960e01b5f526004523360245260445ffd5b50805f52600460205260018060a01b0360405f2054163314610bc7565b3461038a575f36600319011261038a57610506610c96611b28565b60405191829160208352602083019061047a565b3461038a57602036600319011261038a576004355f526009602052606060405f20805490600260018201549101549060405192835260208301526040820152f35b3461038a575f36600319011261038a57610506604051610d0c604082610614565b60018152603160f81b602082015260405191829160208352602083019061047a565b6024359060ff8216820361038a57565b3461038a57604036600319011261038a576020610d77600435610d5f610d2e565b60405191610d6d8584610614565b5f83523390612299565b604051908152f35b9181601f8401121561038a578235916001600160401b03831161038a576020838186019501011161038a57565b3461038a5760c036600319011261038a57600435610dc8610d2e565b90610dd16105ea565b906064356001600160401b03811161038a57610df1903690600401610d7f565b6084356001600160401b03811161038a57610e1090369060040161069c565b9160a435946001600160401b03861161038a5761050696610e38610e3e97369060040161069c565b95611c13565b6040519081529081906020820190565b3461038a57608036600319011261038a57600435610e6a610d2e565b906044356001600160401b03811161038a57610e8a903690600401610d7f565b9190926064356001600160401b03811161038a57610ec394610eb3610ebb92369060040161069c565b943691610666565b913390612316565b604051908152602090f35b3461038a57602036600319011261038a576020610d77600435612451565b65ffffffffffff81160361038a57565b3461038a57602036600319011261038a57600435610f1981610eec565b610f2161203c565b6008547fc565b045403dc03c2eea82b81a0465edad9e2e7fc4d97e11421c209da93d7a93604065ffffffffffff81519481851686521693846020820152a165ffffffffffff191617600855005b3461038a57606036600319011261038a57600435610f8a610d2e565b90604435906001600160401b03821161038a57602092610fbb610fb4610d77943690600401610d7f565b3691610666565b913390612299565b3461038a57608036600319011261038a576004356001600160401b03811161038a57610ff3903690600401610723565b6024356001600160401b03811161038a57611012903690600401610791565b906044356001600160401b03811161038a576110329036906004016107ee565b90606435916001600160401b03831161038a573660238401121561038a576105069361106b610e3e943690602481600401359101610666565b92611d17565b3461038a57602036600319011261038a576001600160a01b036110926105be565b165f526002602052602060405f2054604051908152f35b90602080835192838152019201905f5b8181106110c65750505090565b82518452602093840193909201916001016110b9565b3461038a575f36600319011261038a5761117e6111187f0000000000000000000000000000000000000000000000000000000000000000612ca1565b6105066111447f0000000000000000000000000000000000000000000000000000000000000000612d00565b61118c60405191611156602084610614565b5f808452366020850137604051958695600f60f81b875260e0602088015260e087019061047a565b90858203604087015261047a565b904660608501523060808501525f60a085015283820360c08501526110a9565b3461038a57608036600319011261038a576004356111c8610d2e565b906111d16105ea565b916064356001600160401b03811161038a576109e06111f761128592369060040161069c565b6001600160a01b0386165f90815260026020526040902080546001810190915561127f9060405160208101917ff2aad550cf55f045cb27e9c559f9889fdfb6e6cdaa032301d6ea397784ae51d7835288604083015260ff8816606083015260018060a01b038a16608083015260a082015260a0815261127760c082610614565b5190206129d5565b86612a05565b6112a05790610e3e916105069361129a611bff565b92612299565b6394ab6c0760e01b5f526001600160a01b03831660045260245b5ffd5b3461038a575f36600319011261038a5760206112d7611e38565b65ffffffffffff60405191168152f35b3461038a575f36600319011261038a57602060405160648152f35b3461038a57606036600319011261038a5761131b6105be565b6024356044356001600160401b03811161038a5761133d90369060040161069c565b50604051630748d63560e31b81526001600160a01b039283166004820152602481019190915290602090829060449082907f0000000000000000000000000000000000000000000000000000000000000000165afa80156113e357610506915f916113b4575b506040519081529081906020820190565b6113d6915060203d6020116113dc575b6113ce8183610614565b81019061288e565b5f6113a3565b503d6113c4565b611b1d565b3461038a575f36600319011261038a5760206001600160d01b0361140a61289d565b16604051908152f35b3461038a576020610d776108ef3661086c565b3461038a57602036600319011261038a5760206040515f8152f35b3461038a57602036600319011261038a576020610d776004355f52600460205265ffffffffffff600160405f2001541690565b3461038a575f36600319011261038a576020600754604051908152f35b3461038a5760a036600319011261038a576114aa6105be565b506114b36105d4565b506044356001600160401b03811161038a576114d3903690600401610791565b506064356001600160401b03811161038a576114f3903690600401610791565b506084356001600160401b03811161038a5761151390369060040161069c565b5060405163bc197c8160e01b8152602090f35b3461038a57602036600319011261038a576020610d77600435611ecb565b606036600319011261038a576115586105be565b6024356044356001600160401b03811161038a57610018925f9261158184933690600401610d7f565b919061158b61203c565b826040519384928337810185815203925af16115a5611f12565b906128e1565b3461038a575f36600319011261038a576105066040516115cc604082610614565b602081527f737570706f72743d627261766f2671756f72756d3d666f722c6162737461696e602082015260405191829160208352602083019061047a565b3461038a575f36600319011261038a5760206040517ff2aad550cf55f045cb27e9c559f9889fdfb6e6cdaa032301d6ea397784ae51d78152f35b3461038a57602036600319011261038a5760043563ffffffff81169081810361038a5761166f61203c565b81156116d75769ffffffff000000000000907f7e3f7f0708a84de9203036abaa450dccc85ad5ff52f78c170f3edb55cf5e882860406008549481519063ffffffff8760301c1682526020820152a160301b169069ffffffff0000000000001916176008555f80f35b63f1cfbf0560e01b5f525f60045260245ffd5b3461038a57604036600319011261038a576117036105be565b6024355f604051611715602082610614565b52604051630748d63560e31b81526001600160a01b039283166004820152602481019190915290602090829060449082907f0000000000000000000000000000000000000000000000000000000000000000165afa80156113e357610506915f916113b457506040519081529081906020820190565b3461038a57602036600319011261038a576004356117a761203c565b60075460408051918252602082018390527fccb45da8d5717e6c4544694297c4ba5cf151d455c9bb0ed4fc7a38411bc0546191a1600755005b3461038a5760a036600319011261038a576117f96105be565b506118026105d4565b506084356001600160401b03811161038a5761182290369060040161069c565b5060405163f23a6e6160e01b8152602090f35b3461038a57602036600319011261038a57600435604051632394e7a360e21b8152600481018290526020816024817f00000000000000000000000000000000000000000000000000000000000000006001600160a01b03165afa80156113e35761050692610e3e925f926118b4575b506118ae90612451565b90612d55565b6118ae9192506118d29060203d6020116113dc576113ce8183610614565b91906118a4565b3461038a575f36600319011261038a576040517f00000000000000000000000000000000000000000000000000000000000000006001600160a01b03168152602090f35b90600182811c9216801561194b575b602083101461193757565b634e487b7160e01b5f52602260045260245ffd5b91607f169161192c565b5f92918154916119648361191d565b80835292600181169081156119b9575060011461198057505050565b5f9081526020812093945091925b83831061199f575060209250010190565b60018160209294939454838587010152019101919061198e565b915050602093945060ff929192191683830152151560051b010190565b634e487b7160e01b5f52603260045260245ffd5b80518210156119fe5760209160051b010190565b6119d6565b611a15815f52600460205260405f2090565b5460f881901c9060f01c60ff16611b1657611b1057611a5c611a51611a42835f52600460205260405f2090565b5460a01c65ffffffffffff1690565b65ffffffffffff1690565b8015611afc57611a6d611a51611e38565b80911015611af657611a7e82611ecb565b10611a895750600190565b611a956109e0826121e2565b8015611ad3575b15611aa75750600390565b611ac5905f52600460205265ffffffffffff600160405f2001541690565b611ace57600490565b600590565b50611af16109e0825f52600960205260405f20600181015490541090565b611a9c565b50505f90565b636ad0607560e01b5f52600482905260245ffd5b50600290565b5050600790565b6040513d5f823e3d90fd5b604051634bf5d7e960e01b81525f816004817f00000000000000000000000000000000000000000000000000000000000000006001600160a01b03165afa5f9181611b84575b506104af57506104af611b7f613394565b612972565b9091503d805f833e611b968183610614565b81019060208183031261038a578051906001600160401b03821161038a570181601f8201121561038a57805190611bcc8261064b565b92611bda6040519485610614565b8284526020838301011161038a57815f9260208093018386015e83010152905f611b6e565b60405190611c0e602083610614565b5f8252565b9390929196956109e0611ccc91611cc68a611c2f368789610666565b6001600160a01b0382165f90815260026020526040902080546001810190915590602081519101208b5160208d0120906040519260208401947f3e83946653575f9a39005e1545185629e92736b7528ab20ca3816f315424a81186528d604086015260ff8d16606086015260018060a01b0316608085015260a084015260c083015260e082015260e0815261127761010082610614565b8a612a05565b611ce7576104af959691611ce1913691610666565b92612316565b6394ab6c0760e01b5f526001600160a01b03871660045260245ffd5b634e487b7160e01b5f52601160045260245ffd5b9193929093611d268233612548565b15611e25576007549485611d42575b6104af94955033936126c5565b5f1965ffffffffffff611d53611e38565b160165ffffffffffff8111611e205765ffffffffffff16955f604051611d7a602082610614565b52604051630748d63560e31b815233600482015260248101979097526020876044817f00000000000000000000000000000000000000000000000000000000000000006001600160a01b03165afa9687156113e3575f97611dff575b50808710611de45750611d35565b636121770b60e11b5f5233600452602487905260445260645ffd5b611e1991975060203d6020116113dc576113ce8183610614565b955f611dd6565b611d03565b63d9b3955760e01b5f523360045260245ffd5b6040516324776b7d60e21b81526020816004817f00000000000000000000000000000000000000000000000000000000000000006001600160a01b03165afa5f9181611e8e575b506104af57506104af43612b8b565b9091506020813d602011611ec3575b81611eaa60209383610614565b8101031261038a5751611ebc81610eec565b905f611e7f565b3d9150611e9d565b805f52600460205265ffffffffffff60405f205460a01c16905f52600460205263ffffffff60405f205460d01c160165ffffffffffff8111611e205765ffffffffffff1690565b3d15611f3c573d90611f238261064b565b91611f316040519384610614565b82523d5f602084013e565b606090565b90602080835192838152019201905f5b818110611f5e5750505090565b82516001600160a01b0316845260209384019390920191600101611f51565b9080602083519182815201916020808360051b8301019401925f915b838310611fa857505050505090565b9091929394602080611fc6600193601f19868203018752895161047a565b97019301930191939290611f99565b92906120369161202261201094604051958694611ffe602087019960808b5260a0880190611f41565b868103601f19016040880152906110a9565b848103601f1901606086015290611f7d565b90608083015203601f198101835282610614565b51902090565b33300361204557565b6347096e4760e01b5f523360045260245ffd5b6008811015610b0a5760ff600191161b90565b600452606491906008811015610b0a576024525f604452565b61208d81611a03565b90601061209983612058565b16156120a3575090565b6331b75e4d60e01b5f526004526120ba9150610afc565b601060445260645ffd5b6120cd81611a03565b9060026120d983612058565b16156120e3575090565b6331b75e4d60e01b5f526004526120fa9150610afc565b600260445260645ffd5b9061210e82611a03565b918161211984612058565b161561212457505090565b6331b75e4d60e01b5f5260045261213a82610afc565b60445260645ffd5b61214d906005612907565b1561215457565b634e487b715f5260416020526024601cfd5b9291925f5b81518110156121c0576001906121b95f806001600160a01b0361218e85886119ea565b511661219a85896119ea565b51906121a6868c6119ea565b5191602083519301915af16115a5611f12565b500161216b565b5050509050565b9060018201809211611e2057565b91908201809211611e2057565b805f52600960205260405f20905f52600460205265ffffffffffff60405f205460a01c16604051632394e7a360e21b815281600482015260208160248160018060a01b037f0000000000000000000000000000000000000000000000000000000000000000165afa80156113e35761227992612268925f926118b457506118ae90612451565b9160026001820154910154906121d5565b101590565b5f19810191908211611e2057565b91908203918211611e2057565b916104af9391604051936122ae602086610614565b5f8552612316565b93909260ff6122e2936104af97958752166020860152604085015260a0606085015260a084019061047a565b91608081840391015261047a565b909260ff6080936104af969584521660208301526040820152816060820152019061047a565b92919092612323816120c4565b50805f52600460205265ffffffffffff61234a60405f2065ffffffffffff905460a01c1690565b1693604051630748d63560e31b815260018060a01b03821695866004830152602482015260208160448160018060a01b037f0000000000000000000000000000000000000000000000000000000000000000165afa9081156113e3576123ba9285915f93612430575b5084612a73565b948051155f146123fd57506123f77fb8e138887d0aa13bab447e82de9d5c1777041ecd21ca36ba824ff1e6c07ddda49386604051948594856122f0565b0390a290565b6123f7907fe2babfbac5889a709b63bb7f598b324e08bc5a4fb9ec647fb3cbc9ec07eb87129487604051958695866122b6565b61244a91935060203d6020116113dc576113ce8183610614565b915f6123b3565b65ffffffffffff9080612464600a612b50565b9491501611155f1461247e57505b6001600160d01b031690565b6124889150612b8b565b600a54905f8291600584116124f4575b6124a49350600a61319d565b806124b057505f612472565b6124e86124bf6124ef9261227e565b600a5f527fc65a7bb8d6351c1cf70c95a316cc6a92839c986682d98bc35f958f4883f9d2a80190565b5460301c90565b612472565b91926124ff8161303f565b8103908111611e20576124a493600a5f5265ffffffffffff8260205f2001541665ffffffffffff8516105f14612536575091612498565b929150612542906121c7565b90612498565b908051603481106125a85760131981830101516001600160b01b03191669dc8f8d908f908c9a8dc360b01b016125a85761258791602919820190612be6565b901591821561259557505090565b6001600160a01b03918216911614919050565b505050600190565b906125ba8261070c565b6125c76040519182610614565b82815280926125d8601f199161070c565b01905f5b8281106125e857505050565b8060606020809385010152016125dc565b95999896979493919261263a9361262c92885260018060a01b031660208801526101206040880152610120870190611f41565b9085820360608701526110a9565b968388036080850152815180895260208901906020808260051b8c01019401915f905b82821061269957505050506104af969750906126809184820360a0860152611f7d565b9360c083015260e082015261010081840391015261047a565b909192946020806126b76001938f601f19908203018652895161047a565b97019201920190929161265d565b9290949391946126dd82516020840120878387611fd5565b958451825190818114801590612883575b801561287b575b61285c57505065ffffffffffff612717611a42895f52600460205260405f2090565b1661283f579161283a917f7d84a6263ae0d98d3329bd7b46bb4e8d6f98cd35a7adb45c274c8b7fd5ebd5e0959493612772612750611e38565b65ffffffffffff61276b611a5165ffffffffffff6008541690565b91166121d5565b9061279161278863ffffffff60085460301c1690565b63ffffffff1690565b6128186127a68c5f52600460205260405f2090565b80546001600160a01b0319166001600160a01b038a161781556127ef6127cb86612b8b565b825465ffffffffffff60a01b191660a09190911b65ffffffffffff60a01b16178255565b6127f883612c76565b815463ffffffff60d01b191660d09190911b63ffffffff60d01b16179055565b61282c61282589516125b0565b91846121d5565b936040519889988d8a6125f9565b0390a1565b6112ba8761284c81611a03565b6331b75e4d60e01b5f529061206b565b9151630447b05d60e41b5f908152600493909352602452604452606490fd5b5080156126f5565b5082518114156126ee565b9081602091031261038a575190565b600a54806128aa57505f90565b805f19810111611e2057600a5f527fc65a7bb8d6351c1cf70c95a316cc6a92839c986682d98bc35f958f4883f9d2a7015460301c90565b156128e95790565b8051156128f857602081519101fd5b63d6bda27560e01b5f5260045ffd5b908154908160801c6001600160801b036001820193166001600160801b0384161461295a575f526001830160205260405f20556001600160801b0382549181199082199060801b16169116179055600190565b505050505f90565b634e487b715f526020526024601cfd5b65ffffffffffff8061298343612b8b565b169116036129c657604051612999604082610614565b601d81527f6d6f64653d626c6f636b6e756d6265722666726f6d3d64656661756c74000000602082015290565b6301bfc1c560e61b5f5260045ffd5b6042906129e0612eef565b906040519161190160f01b8352600283015260228201522090565b60041115610b0a57565b9190823b612a2d5790612a1791613005565b50612a21816129fb565b15918261259557505090565b916020926064835f94519060405193630b135d3f60e11b855260048501526040602485015286820190604485015e01915afa630b135d3f60e11b5f5114601f3d11161690565b612a88909291925f52600960205260405f2090565b9160038301612ab1612aaa83839060018060a01b03165f5260205260405f2090565b5460ff1690565b612b3457612ad560ff9392612ae2929060018060a01b03165f5260205260405f2090565b805460ff19166001179055565b1680612af95750612af48282546121d5565b905590565b60018103612b105750600101612af48282546121d5565b600203612b2557600201612af48282546121d5565b6303599be160e11b5f5260045ffd5b6371c6af4960e01b5f526001600160a01b03821660045260245ffd5b80549081612b625750505f905f905f90565b815f19810111611e20575f525f199060205f2001015460019165ffffffffffff82169160301c90565b65ffffffffffff8111612ba35765ffffffffffff1690565b6306dfcc6560e41b5f52603060045260245260445ffd5b908160011b9180830460021490151715611e2057565b908160041b9180830460101490151715611e2057565b9190825182118015612c6d575b612c4657612c00816121c7565b821180612c4f575b612c13901515612bba565b60280180602811611e2057612c28828461228c565b03612c4657612c36926131f6565b90916001600160a01b0390911690565b5050505f905f90565b50602081840101516001600160f01b03191661060f60f31b14612c08565b50818111612bf3565b63ffffffff8111612c8a5763ffffffff1690565b6306dfcc6560e41b5f52602060045260245260445ffd5b60ff8114612ce75760ff811690601f8211612cd85760405191612cc5604084610614565b6020808452838101919036833783525290565b632cd44ac360e21b5f5260045ffd5b506040516104af81612cf9815f611955565b0382610614565b60ff8114612d245760ff811690601f8211612cd85760405191612cc5604084610614565b506040516104af81612cf9816001611955565b8115612d41570490565b634e487b7160e01b5f52601260045260245ffd5b5f19828209908281029182808210910303908115612db6578160641115612daf577f5c28f5c28f5c28f5c28f5c28f5c28f5c28f5c28f5c28f5c28f5c28f5c28f5c29936064910990828211900360fe1b910360021c170290565b6011612962565b505060649004919050565b908154600160401b81101561063557600181018084558110156119fe575f9283526020928390208251929093015160301b65ffffffffffff191665ffffffffffff9290921691909117910155565b600a549192918015612ec6576124bf612e279161227e565b908154612e43612e3c8265ffffffffffff1690565b9160301c90565b9265ffffffffffff808416921691808311612eb757869203612e8157612e7d92509065ffffffffffff82549181199060301b169116179055565b9190565b5050612e7d90612ea0612e9261063a565b65ffffffffffff9092168252565b6001600160d01b03851660208201525b600a612dc1565b632520601d60e01b5f5260045ffd5b50612eea90612ed6612e9261063a565b6001600160d01b0384166020820152612eb0565b5f9190565b307f00000000000000000000000000000000000000000000000000000000000000006001600160a01b03161480612fdc575b15612f4a577f000000000000000000000000000000000000000000000000000000000000000090565b60405160208101907f8b73c3c69bb8fe3d512ecc4cf759cc79239f7b179b0ffacaa9a75d522b39400f82527f000000000000000000000000000000000000000000000000000000000000000060408201527f000000000000000000000000000000000000000000000000000000000000000060608201524660808201523060a082015260a0815261203660c082610614565b507f00000000000000000000000000000000000000000000000000000000000000004614612f21565b81519190604183036130355761302e9250602082015190606060408401519301515f1a906132a0565b9192909190565b50505f9160029190565b60018111156104af57806001600160801b821015613160575b6131066130fc6130f26130e86130de6130d46130c361310d9760048a600160401b6131129c1015613153575b640100000000811015613146575b62010000811015613139575b61010081101561312c575b601081101561311f575b1015613117575b60030260011c90565b6130cd818b612d37565b0160011c90565b6130cd818a612d37565b6130cd8189612d37565b6130cd8188612d37565b6130cd8187612d37565b6130cd8186612d37565b8093612d37565b821190565b900390565b60011b6130ba565b60041c9160021b916130b3565b60081c9160041b916130a9565b60101c9160081b9161309e565b60201c9160101b91613092565b60401c9160201b91613084565b505061311261310d6131066130fc6130f26130e86130de6130d46130c36131878a60801c90565b9850600160401b97506130589650505050505050565b905b8383106131ac5750505090565b90919280841860011c8185160190835f5265ffffffffffff8260205f2001541665ffffffffffff8416105f146131e65750925b919061319f565b93506131f1906121c7565b6131df565b929092613202846121c7565b831180613282575b61321c61322391949293941515612bba565b5f956121d5565b915b8183106132355750505060019190565b9092919360ff6132566132516020888601015160ff60f81b1690565b613322565b1690600f8211613277579061326c600192612bd0565b019401919290613225565b505f94508493505050565b50602084820101516001600160f01b03191661060f60f31b1461320a565b91907f7fffffffffffffffffffffffffffffff5d576e7357a4501ddfe92f46681b20a08411613317579160209360809260ff5f9560405194855216868401526040830152606082015282805260015afa156113e3575f516001600160a01b0381161561330d57905f905f90565b505f906001905f90565b5050505f9160039190565b60f81c602f81118061338a575b1561333e57602f190160ff1690565b6060811180613380575b15613357576056190160ff1690565b6040811180613376575b15613370576036190160ff1690565b5060ff90565b5060478110613361565b5060678110613348565b50603a811061332f565b6104af611e3856fea2646970667358221220b6c474407023d1f5e0231ac7cbe069f5fc645284cd3b863b2e2037635bb1ed7864736f6c634300081c00330553476bf02ef2726e8ce5ced78d63e26e602e4a2257b1f559418e24b4633997a2646970667358221220d5af10d324bc4836aaa7a3d4260b56069d19924f14111232e56044d51280dd6d64736f6c634300081c0033","linkReferences":{}},"methodIdentifiers":{"createOrg((string,string,string,uint48,uint32,uint256,uint256,uint8))":"978fe1a8"},"id":75}