{"abi":[{"type":"function","name":"MAX_DELEGATES","inputs":[],"outputs":[{"name":"","type":"uint8","internalType":"uint8"}],"stateMutability":"view"},{"type":"function","name":"MIN_DELEGATES","inputs":[],"outputs":[{"name":"","type":"uint8","internalType":"uint8"}],"stateMutability":"view"},{"type":"function","name":"TIMELOCK","inputs":[],"outputs":[{"name":"","type":"uint256","internalType":"uint256"}],"stateMutability":"view"},{"type":"function","name":"approveRecovery","inputs":[{"name":"user","type":"address","internalType":"address"}],"outputs":[],"stateMutability":"nonpayable"},{"type":"function","name":"cancelRecovery","inputs":[],"outputs":[],"stateMutability":"nonpayable"},{"type":"function","name":"delegatesOf","inputs":[{"name":"user","type":"address","internalType":"address"}],"outputs":[{"name":"","type":"address[]","internalType":"address[]"}],"stateMutability":"view"},{"type":"function","name":"executeRecovery","inputs":[{"name":"user","type":"address","internalType":"address"}],"outputs":[],"stateMutability":"nonpayable"},{"type":"function","name":"pendingRecovery","inputs":[{"name":"user","type":"address","internalType":"address"}],"outputs":[{"name":"newOwner","type":"address","internalType":"address"},{"name":"readyAt","type":"uint64","internalType":"uint64"},{"name":"approvals","type":"uint8","internalType":"uint8"},{"name":"threshold","type":"uint8","internalType":"uint8"}],"stateMutability":"view"},{"type":"function","name":"proposeRecovery","inputs":[{"name":"user","type":"address","internalType":"address"},{"name":"newOwner","type":"address","internalType":"address"},{"name":"orgs","type":"address[]","internalType":"address[]"}],"outputs":[],"stateMutability":"nonpayable"},{"type":"function","name":"setDelegates","inputs":[{"name":"delegates","type":"address[]","internalType":"address[]"},{"name":"threshold","type":"uint8","internalType":"uint8"}],"outputs":[],"stateMutability":"nonpayable"},{"type":"event","name":"DelegatesSet","inputs":[{"name":"user","type":"address","indexed":true,"internalType":"address"},{"name":"delegates","type":"address[]","indexed":false,"internalType":"address[]"},{"name":"threshold","type":"uint8","indexed":false,"internalType":"uint8"}],"anonymous":false},{"type":"event","name":"RecoveryApproved","inputs":[{"name":"user","type":"address","indexed":true,"internalType":"address"},{"name":"delegate","type":"address","indexed":true,"internalType":"address"}],"anonymous":false},{"type":"event","name":"RecoveryCancelled","inputs":[{"name":"user","type":"address","indexed":true,"internalType":"address"}],"anonymous":false},{"type":"event","name":"RecoveryExecuted","inputs":[{"name":"user","type":"address","indexed":true,"internalType":"address"},{"name":"newOwner","type":"address","indexed":true,"internalType":"address"}],"anonymous":false},{"type":"event","name":"RecoveryProposed","inputs":[{"name":"user","type":"address","indexed":true,"internalType":"address"},{"name":"proposedBy","type":"address","indexed":true,"internalType":"address"},{"name":"newOwner","type":"address","indexed":false,"internalType":"address"}],"anonymous":false},{"type":"error","name":"AlreadyApproved","inputs":[]},{"type":"error","name":"BadDelegateCount","inputs":[]},{"type":"error","name":"BadThreshold","inputs":[]},{"type":"error","name":"NoPending","inputs":[]},{"type":"error","name":"NotDelegate","inputs":[]},{"type":"error","name":"NotInitialized","inputs":[]},{"type":"error","name":"TimelockActive","inputs":[]}],"bytecode":{"object":"0x608080604052346015576109d6908161001a8239f35b5f80fdfe60806040526004361015610011575f80fd5b5f3560e01c80630ba234d6146107fc57806330548c58146106305780633bc2c4a7146105105780635f5b0c32146104f5578063684658de146103725780637aadef8b146103555780637de5b8ed14610266578063cbc3b3c21461011f578063e33f2e8a146101045763ea96926514610087575f80fd5b346101005760203660031901126101005760806001600160a01b036100aa61084d565b16805f52600160205260405f20905f525f60205260ff600160405f2092549201541660ff6040519260018060a01b038116845267ffffffffffffffff8160a01c16602085015260e01c1660408301526060820152f35b5f80fd5b34610100575f36600319011261010057602060405160038152f35b34610100576020366003190112610100576001600160a01b0361014061084d565b16805f525f60205260405f2060ff600182015460081c161561025757610167903390610957565b1561024857805f52600160205260405f2067ffffffffffffffff815460a01c161561023957335f90815260018201602081905260409091205460ff1661022a5760018060a01b0333165f5260205260405f20600160ff1982541617905560ff815460e01c1660ff811461021657815460ff60e01b1916600190910160e01b60ff60e01b1617905533907f10c6775f0265d0cb459912547a8aaffb6c41c309be8482a12a66ed15774f7ea55f80a3005b634e487b7160e01b5f52601160045260245ffd5b63080fc0bd60e11b5f5260045ffd5b63369d55ef60e21b5f5260045ffd5b631db3b85960e01b5f5260045ffd5b6321c4e35760e21b5f5260045ffd5b34610100576020366003190112610100576001600160a01b0361028761084d565b165f525f60205260405f2060405190816020825491828152019081925f5260205f20905f5b81811061033657505050829003601f01601f191682019167ffffffffffffffff8311818410176103225790829182604052602083019060208452518091526040830191905f5b818110610300575050500390f35b82516001600160a01b03168452859450602093840193909201916001016102f2565b634e487b7160e01b5f52604160045260245ffd5b82546001600160a01b03168452602090930192600192830192016102ac565b34610100575f36600319011261010057602060405162093a808152f35b346101005760403660031901126101005760043567ffffffffffffffff8111610100576103a3903690600401610863565b9060243560ff811690818103610100576003841080156104eb575b6104dc5781159081156104d2575b81156104b5575b506104a657335f525f60205260405f206103ec81610894565b5f5b84811061048157506001016101008261ffff1983541617179055604051908360408301604084525260608201925f945b8086106104555760208401839052337f7e17ce44cb410da6682a4dadc2bbcb854ff8e661de9a6a4bb57df3e6e62326fd85870386a2005b909384356001600160a01b0381169190829003610100576020816001938293520195019501949061041e565b806104a061049a61049560019489896108ed565b6108fd565b84610911565b016103ee565b63b891a4fb60e01b5f5260045ffd5b905060011b6101fe60fe82169116810361021657831015846103d3565b84831191506103cc565b6370989f5160e11b5f5260045ffd5b50600584116103be565b34610100575f36600319011261010057602060405160058152f35b34610100576020366003190112610100576001600160a01b0361053161084d565b16805f525f60205260405f20815f52600160205260405f2080549167ffffffffffffffff8360a01c16801561023957421061062157600160ff9101541660ff8360e01c16106105ea576002018054905f5b8281106105d5575050506001600160a01b0316817f60f9f98be64687700419cfa6fdd7877bc88c6daeb10bc664a2be9fdd6b0c79215f80a35f5260016020526105d3600260405f205f815501610894565b005b806105e2600192846108c4565b505001610582565b60405162461bcd60e51b815260206004820152600f60248201526e18995b1bddc81d1a1c995cda1bdb19608a1b6044820152606490fd5b637d857b6760e01b5f5260045ffd5b346101005760603660031901126101005761064961084d565b6024356001600160a01b03811691908290036101005760443567ffffffffffffffff81116101005761067f903690600401610863565b9160018060a01b0316805f525f60205260405f209360ff600186015460081c1615610257576106ae3386610957565b15610248575f82815260016020819052604082209590860194915b875481101561070c57806106df6001928a6108c4565b838060a01b0391549060031b1c16828060a01b03165f528660205260405f2060ff198154169055016106c9565b50848680549162093a804201928342116102165760ff60e01b1987166001600160e81b03199091161760a09390931b67ffffffffffffffff60a01b1692909217600160e01b178155335f9081526020929092526040909120805460ff191660011790556002019061077c82610894565b5f5b8181106107dc578585604051908152817f8a36f35bf58eb6d773581b43fbbe49c4d1cefa38e57a4d20b94f554fd16745fd60203393a333907f10c6775f0265d0cb459912547a8aaffb6c41c309be8482a12a66ed15774f7ea55f80a3005b806107f66107f061049560019486896108ed565b85610911565b0161077e565b34610100575f36600319011261010057335f526001602052610826600260405f205f815501610894565b337f8154b6c5e1fc90d44b49808ef93f9739148d0821411890f8cd684385e24b9f1e5f80a2005b600435906001600160a01b038216820361010057565b9181601f840112156101005782359167ffffffffffffffff8311610100576020808501948460051b01011161010057565b8054905f8155816108a3575050565b5f5260205f20908101905b8181106108b9575050565b5f81556001016108ae565b80548210156108d9575f5260205f2001905f90565b634e487b7160e01b5f52603260045260245ffd5b91908110156108d95760051b0190565b356001600160a01b03811681036101005790565b80546801000000000000000081101561032257610933916001820181556108c4565b81546001600160a01b0393841660039290921b91821b9390911b1916919091179055565b905f5b82548110156109995761096d81846108c4565b905460039190911b1c6001600160a01b03908116908316146109915760010161095a565b505050600190565b5050505f9056fea26469706673582212204e064e06bec12c3951ed57e46cdd991e8d1340bdff0a3545ddfcdf2bbb8f45c164736f6c634300081c0033","linkReferences":{}},"methodIdentifiers":{"MAX_DELEGATES()":"5f5b0c32","MIN_DELEGATES()":"e33f2e8a","TIMELOCK()":"7aadef8b","approveRecovery(address)":"cbc3b3c2","cancelRecovery()":"0ba234d6","delegatesOf(address)":"7de5b8ed","executeRecovery(address)":"3bc2c4a7","pendingRecovery(address)":"ea969265","proposeRecovery(address,address,address[])":"30548c58","setDelegates(address[],uint8)":"684658de"},"id":78}